{"abi":[{"type":"constructor","inputs":[],"stateMutability":"nonpayable"},{"type":"function","name":"beacon","inputs":[],"outputs":[{"name":"","type":"address","internalType":"address"}],"stateMutability":"view"},{"type":"function","name":"createPool","inputs":[{"name":"tokenA","type":"address","internalType":"address"},{"name":"tokenB","type":"address","internalType":"address"},{"name":"fee","type":"uint24","internalType":"uint24"}],"outputs":[{"name":"pool","type":"address","internalType":"address"}],"stateMutability":"nonpayable"},{"type":"function","name":"enableFeeAmount","inputs":[{"name":"fee","type":"uint24","internalType":"uint24"},{"name":"tickSpacing","type":"int24","internalType":"int24"},{"name":"feeProtocolNum","type":"uint8","internalType":"uint8"},{"name":"feeProtocolDen","type":"uint8","internalType":"uint8"}],"outputs":[],"stateMutability":"nonpayable"},{"type":"function","name":"feeAmountProtocol","inputs":[{"name":"","type":"uint24","internalType":"uint24"}],"outputs":[{"name":"numerator","type":"uint8","internalType":"uint8"},{"name":"denominator","type":"uint8","internalType":"uint8"}],"stateMutability":"view"},{"type":"function","name":"feeAmountTickSpacing","inputs":[{"name":"","type":"uint24","internalType":"uint24"}],"outputs":[{"name":"","type":"int24","internalType":"int24"}],"stateMutability":"view"},{"type":"function","name":"flashLoanEnabled","inputs":[],"outputs":[{"name":"","type":"bool","internalType":"bool"}],"stateMutability":"view"},{"type":"function","name":"getPool","inputs":[{"name":"","type":"address","internalType":"address"},{"name":"","type":"address","internalType":"address"},{"name":"","type":"uint24","internalType":"uint24"}],"outputs":[{"name":"","type":"address","internalType":"address"}],"stateMutability":"view"},{"type":"function","name":"initialize","inputs":[{"name":"beacon_","type":"address","internalType":"address"},{"name":"owner_","type":"address","internalType":"address"},{"name":"treasury_","type":"address","internalType":"address"}],"outputs":[],"stateMutability":"nonpayable"},{"type":"function","name":"owner","inputs":[],"outputs":[{"name":"","type":"address","internalType":"address"}],"stateMutability":"view"},{"type":"function","name":"parameters","inputs":[],"outputs":[{"name":"factory","type":"address","internalType":"address"},{"name":"token0","type":"address","internalType":"address"},{"name":"token1","type":"address","internalType":"address"},{"name":"fee","type":"uint24","internalType":"uint24"},{"name":"tickSpacing","type":"int24","internalType":"int24"}],"stateMutability":"view"},{"type":"function","name":"setTreasury","inputs":[{"name":"_treasury","type":"address","internalType":"address"}],"outputs":[],"stateMutability":"nonpayable"},{"type":"function","name":"toggleFlashLoanPermission","inputs":[],"outputs":[],"stateMutability":"nonpayable"},{"type":"function","name":"treasury","inputs":[],"outputs":[{"name":"","type":"address","internalType":"address"}],"stateMutability":"view"},{"type":"event","name":"FeeAmountEnabled","inputs":[{"name":"fee","type":"uint24","indexed":true,"internalType":"uint24"},{"name":"tickSpacing","type":"int24","indexed":true,"internalType":"int24"},{"name":"protocolFeeNum","type":"uint8","indexed":false,"internalType":"uint8"},{"name":"protocolFeeDen","type":"uint8","indexed":false,"internalType":"uint8"}],"anonymous":false},{"type":"event","name":"FlashLoanPermissionUpdated","inputs":[{"name":"enabled","type":"bool","indexed":true,"internalType":"bool"}],"anonymous":false},{"type":"event","name":"PoolCreated","inputs":[{"name":"token0","type":"address","indexed":true,"internalType":"address"},{"name":"token1","type":"address","indexed":true,"internalType":"address"},{"name":"fee","type":"uint24","indexed":true,"internalType":"uint24"},{"name":"tickSpacing","type":"int24","indexed":false,"internalType":"int24"},{"name":"pool","type":"address","indexed":false,"internalType":"address"}],"anonymous":false},{"type":"event","name":"TreasuryChanged","inputs":[{"name":"oldTreasury","type":"address","indexed":true,"internalType":"address"},{"name":"newTreasury","type":"address","indexed":true,"internalType":"address"}],"anonymous":false}],"bytecode":{"object":"0x608060405234801561001057600080fd5b50600080546001600160a01b0319166001179055611024806100336000396000f3fe608060405234801561001057600080fd5b50600436106100cf5760003560e01c806365d61c6c1161008c578063a167129511610066578063a167129514610229578063b4a91cbd14610265578063c0c53b8b146102aa578063f0f44260146102e2576100cf565b806365d61c6c146101bb57806389035730146101d75780638da5cb5b14610221576100cf565b80631698ee82146100d457806322afcccb1461012c57806327c28660146101655780634cad9140146101a357806359659e90146101ab57806361d027b3146101b3575b600080fd5b610110600480360360608110156100ea57600080fd5b5080356001600160a01b03908116916020810135909116906040013562ffffff16610308565b604080516001600160a01b039092168252519081900360200190f35b61014e6004803603602081101561014257600080fd5b503562ffffff16610334565b6040805160029290920b8252519081900360200190f35b6101a16004803603608081101561017b57600080fd5b5062ffffff81351690602081013560020b9060ff60408201358116916060013516610349565b005b6101a16104ad565b61011061050e565b61011061051d565b6101c361052c565b604080519115158252519081900360200190f35b6101df61053c565b604080516001600160a01b0396871681529486166020860152929094168383015262ffffff16606083015260029290920b608082015290519081900360a00190f35b610110610573565b6101106004803603606081101561023f57600080fd5b5080356001600160a01b03908116916020810135909116906040013562ffffff16610582565b6102876004803603602081101561027b57600080fd5b503562ffffff166107d0565b604051808360ff1681526020018260ff1681526020019250505060405180910390f35b6101a1600480360360608110156102c057600080fd5b506001600160a01b0381358116916020810135821691604090910135166107ee565b6101a1600480360360208110156102f857600080fd5b50356001600160a01b03166109ce565b60086020908152600093845260408085208252928452828420905282529020546001600160a01b031681565b60066020526000908152604090205460020b81565b610351610a77565b620f42408462ffffff16106103ad576040805162461bcd60e51b815260206004820152601d60248201527f4b6174616e615633466163746f72793a204645455f544f4f5f48494748000000604482015290519081900360640190fd5b60008360020b1380156103c457506140008360020b125b6103ff5760405162461bcd60e51b8152600401808060200182810382526025815260200180610f2d6025913960400191505060405180910390fd5b8060ff168260ff16106104435760405162461bcd60e51b8152600401808060200182810382526025815260200180610f526025913960400191505060405180910390fd5b62ffffff8416600090815260066020526040902054600290810b900b1561049b5760405162461bcd60e51b815260040180806020018281038252602b815260200180610f77602b913960400191505060405180910390fd5b6104a784848484610ad8565b50505050565b6104b5610a77565b6005805460ff600160a01b808304821615810260ff60a01b199093169290921792839055604051919092049091161515907fc30b40f4f206ddd1a59cfd25b348d6f1980e74ceb1bf543419242e338bd8366e90600090a2565b6000546001600160a01b031681565b6005546001600160a01b031681565b600554600160a01b900460ff1681565b600154600280546003546001600160a01b0393841693918216929181169162ffffff600160a01b83041691600160b81b9004900b85565b6004546001600160a01b031681565b6000600460009054906101000a90046001600160a01b03166001600160a01b0316636a22dede6040518163ffffffff1660e01b815260040160206040518083038186803b1580156105d257600080fd5b505afa1580156105e6573d6000803e3d6000fd5b505050506040513d60208110156105fc57600080fd5b50516001600160a01b031633146106445760405162461bcd60e51b8152600401808060200182810382526029815260200180610fa26029913960400191505060405180910390fd5b826001600160a01b0316846001600160a01b0316141561066357600080fd5b600080846001600160a01b0316866001600160a01b031610610686578486610689565b85855b90925090506001600160a01b0382166106a157600080fd5b62ffffff8416600090815260066020526040902054600290810b9081900b6106c857600080fd5b6001600160a01b0383811660009081526008602090815260408083208685168452825280832062ffffff8a168452909152902054161561070757600080fd5b6107143084848885610b8c565b6001600160a01b03808516600081815260086020818152604080842089871680865290835281852062ffffff8e168087529084528286208054988a166001600160a01b0319998a1681179091558287529484528286208787528452828620818752845294829020805490971684179096558051600289900b815291820192909252815195995091947f783cca1c0412dd0d695e784568c96da2e9c22ff989357a2e8b1d9b2b4e6b71189281900390910190a45050509392505050565b60076020526000908152604090205460ff8082169161010090041682565b6000546001600160a01b0316156108365760405162461bcd60e51b8152600401808060200182810382526024815260200180610fcb6024913960400191505060405180910390fd5b6001600160a01b038316610891576040805162461bcd60e51b815260206004820152601f60248201527f4b6174616e615633466163746f72793a20494e56414c49445f424541434f4e00604482015290519081900360640190fd5b6001600160a01b0382166108ec576040805162461bcd60e51b815260206004820152601e60248201527f4b6174616e615633466163746f72793a20494e56414c49445f4f574e45520000604482015290519081900360640190fd5b6001600160a01b0381166109315760405162461bcd60e51b8152600401808060200182810382526021815260200180610f0c6021913960400191505060405180910390fd5b600080546001600160a01b038086166001600160a01b031992831617835560048054868316908416179055600580549185169190921681179091556040519091907f8c3aa5f43a388513435861bf27dfad7829cd248696fed367c62d441f62954496908290a36109a7606460016005600a610ad8565b6109b8610bb8603c6005601e610ad8565b6109c961271060c8600f6064610ad8565b505050565b6109d6610a77565b6001600160a01b038116610a1b5760405162461bcd60e51b8152600401808060200182810382526021815260200180610f0c6021913960400191505060405180910390fd5b6005546040516001600160a01b038084169216907f8c3aa5f43a388513435861bf27dfad7829cd248696fed367c62d441f6295449690600090a3600580546001600160a01b0319166001600160a01b0392909216919091179055565b6004546001600160a01b03163314610ad6576040805162461bcd60e51b815260206004820152601a60248201527f4b6174616e615633466163746f72793a20464f5242494444454e000000000000604482015290519081900360640190fd5b565b62ffffff8481166000818152600660209081526040808320805462ffffff191660028a900b9687161790558051808201825260ff888116808352888216838601818152888852600787529685902093518454975160ff199098169084161761ff00191661010097909316969096029190911790915581519081529182019290925281517f7903160027ccb28d943669d1040216aeb276ca8dbd083c36128affe6712e0122929181900390910190a350505050565b6040805160a0810182526001600160a01b038781168083528782166020840181905287831684860181905262ffffff88811660608701819052600289810b6080909801889052600180546001600160a01b031990811690971790558054861690941784556003805490951690921762ffffff60a01b1916600160a01b9092029190911762ffffff60b81b1916600160b81b9590920b169390930292909217909155600080548351630442fd0560e51b8152935191938493919091169163885fa0a0916004808201928692909190829003018186803b158015610c6d57600080fd5b505afa158015610c81573d6000803e3d6000fd5b505050506040513d6000823e601f3d908101601f191682016040526020811015610caa57600080fd5b8101908080516040519392919084640100000000821115610cca57600080fd5b908301906020820185811115610cdf57600080fd5b8251640100000000811182820188101715610cf957600080fd5b82525081516020918201929091019080838360005b83811015610d26578181015183820152602001610d0e565b50505050905090810190601f168015610d535780820380516001836020036101000a031916815260200191505b506040525050509050600086868660405160200180846001600160a01b03168152602001836001600160a01b031681526020018262ffffff1681526020019350505050604051602081830303815290604052805190602001209050610dba60008284610df2565b600180546001600160a01b0319908116909155600280549091169055600380546001600160d01b031916905598975050505050505050565b60008084471015610e4a576040805162461bcd60e51b815260206004820152601d60248201527f437265617465323a20696e73756666696369656e742062616c616e6365000000604482015290519081900360640190fd5b8251610e9d576040805162461bcd60e51b815260206004820181905260248201527f437265617465323a2062797465636f6465206c656e677468206973207a65726f604482015290519081900360640190fd5b8383516020850187f590506001600160a01b038116610f03576040805162461bcd60e51b815260206004820152601960248201527f437265617465323a204661696c6564206f6e206465706c6f7900000000000000604482015290519081900360640190fd5b94935050505056fe4b6174616e615633466163746f72793a20494e56414c49445f54524541535552594b6174616e615633466163746f72793a20494e56414c49445f5449434b5f53504143494e474b6174616e615633466163746f72793a20494e56414c49445f4645455f50524f544f434f4c4b6174616e615633466163746f72793a204645455f414d4f554e545f414c52454144595f454e41424c45444b6174616e615633466163746f72793a20494e56414c49445f504f534954494f4e5f4d414e414745524b6174616e615633466163746f72793a20414c52454144595f494e495449414c495a4544a2646970667358221220553bcf4c2594e38c20d6139fa33fc14860af4a8cabce323ab895211fa2f67ef264736f6c63430007060033","linkReferences":{}},"methodIdentifiers":{"beacon()":"59659e90","createPool(address,address,uint24)":"a1671295","enableFeeAmount(uint24,int24,uint8,uint8)":"27c28660","feeAmountProtocol(uint24)":"b4a91cbd","feeAmountTickSpacing(uint24)":"22afcccb","flashLoanEnabled()":"65d61c6c","getPool(address,address,uint24)":"1698ee82","initialize(address,address,address)":"c0c53b8b","owner()":"8da5cb5b","parameters()":"89035730","setTreasury(address)":"f0f44260","toggleFlashLoanPermission()":"4cad9140","treasury()":"61d027b3"},"id":58}