{"abi":[{"type":"constructor","inputs":[{"name":"poolImplementation","type":"address","internalType":"address"}],"stateMutability":"nonpayable"},{"type":"function","name":"POOL_PROXY_INIT_CODE","inputs":[],"outputs":[{"name":"","type":"bytes","internalType":"bytes"}],"stateMutability":"view"},{"type":"function","name":"POOL_PROXY_INIT_CODE_HASH","inputs":[],"outputs":[{"name":"","type":"bytes32","internalType":"bytes32"}],"stateMutability":"view"},{"type":"function","name":"implementation","inputs":[],"outputs":[{"name":"","type":"address","internalType":"address"}],"stateMutability":"view"},{"type":"function","name":"owner","inputs":[],"outputs":[{"name":"","type":"address","internalType":"address"}],"stateMutability":"view"},{"type":"function","name":"renounceOwnership","inputs":[],"outputs":[],"stateMutability":"nonpayable"},{"type":"function","name":"transferOwnership","inputs":[{"name":"newOwner","type":"address","internalType":"address"}],"outputs":[],"stateMutability":"nonpayable"},{"type":"function","name":"upgradeTo","inputs":[{"name":"newImplementation","type":"address","internalType":"address"}],"outputs":[],"stateMutability":"nonpayable"},{"type":"event","name":"OwnershipTransferred","inputs":[{"name":"previousOwner","type":"address","indexed":true,"internalType":"address"},{"name":"newOwner","type":"address","indexed":true,"internalType":"address"}],"anonymous":false},{"type":"event","name":"Upgraded","inputs":[{"name":"implementation","type":"address","indexed":true,"internalType":"address"}],"anonymous":false}],"bytecode":{"object":"0x608060405234801561001057600080fd5b506040516111ec3803806111ec8339818101604052602081101561003357600080fd5b505180600061004061009a565b600080546001600160a01b0319166001600160a01b0383169081178255604051929350917f8be0079c531659141344cd1fd0a4f28419497f9722a3daafe3b4186f6b6457e0908290a3506100938161009e565b5050610114565b3390565b6100b18161010e60201b6104c61760201c565b6100ec5760405162461bcd60e51b81526004018080602001828103825260338152602001806111b96033913960400191505060405180910390fd5b600180546001600160a01b0319166001600160a01b0392909216919091179055565b3b151590565b611096806101236000396000f3fe60806040523480156200001157600080fd5b5060043610620000885760003560e01c8063715018a61162000063578063715018a614620000fa578063885fa0a014620001045780638da5cb5b1462000186578063f2fde38b14620001905762000088565b80632c2ad332146200008d5780633659cfe614620000a95780635c60da1b14620000d4575b600080fd5b62000097620001b9565b60408051918252519081900360200190f35b620000d260048036036020811015620000c157600080fd5b50356001600160a01b0316620001e8565b005b620000de620002a3565b604080516001600160a01b039092168252519081900360200190f35b620000d2620002b2565b6200010e62000375565b6040805160208082528351818301528351919283929083019185019080838360005b838110156200014a57818101518382015260200162000130565b50505050905090810190601f168015620001785780820380516001836020036101000a031916815260200191505b509250505060405180910390f35b620000de6200039c565b620000d260048036036020811015620001a857600080fd5b50356001600160a01b0316620003ab565b604051620001ca602082016200053a565b6020820181038252601f19601f820116604052508051906020012081565b620001f2620004cc565b6001600160a01b0316620002056200039c565b6001600160a01b03161462000261576040805162461bcd60e51b815260206004820181905260248201527f4f776e61626c653a2063616c6c6572206973206e6f7420746865206f776e6572604482015290519081900360640190fd5b6200026c81620004d0565b6040516001600160a01b038216907fbc7cd75a20ee27fd9adebab32041f755214dbc6bffa90cc0225b39da2e5c2d3b90600090a250565b6001546001600160a01b031690565b620002bc620004cc565b6001600160a01b0316620002cf6200039c565b6001600160a01b0316146200032b576040805162461bcd60e51b815260206004820181905260248201527f4f776e61626c653a2063616c6c6572206973206e6f7420746865206f776e6572604482015290519081900360640190fd5b600080546040516001600160a01b03909116907f8be0079c531659141344cd1fd0a4f28419497f9722a3daafe3b4186f6b6457e0908390a3600080546001600160a01b0319169055565b60405162000386602082016200053a565b601f1982820381018352601f9091011660405281565b6000546001600160a01b031690565b620003b5620004cc565b6001600160a01b0316620003c86200039c565b6001600160a01b03161462000424576040805162461bcd60e51b815260206004820181905260248201527f4f776e61626c653a2063616c6c6572206973206e6f7420746865206f776e6572604482015290519081900360640190fd5b6001600160a01b0381166200046b5760405162461bcd60e51b8152600401808060200182810382526026815260200180620010086026913960400191505060405180910390fd5b600080546040516001600160a01b03808516939216917f8be0079c531659141344cd1fd0a4f28419497f9722a3daafe3b4186f6b6457e091a3600080546001600160a01b0319166001600160a01b0392909216919091179055565b3b151590565b3390565b620004db81620004c6565b620005185760405162461bcd60e51b81526004018080602001828103825260338152602001806200102e6033913960400191505060405180910390fd5b600180546001600160a01b0319166001600160a01b0392909216919091179055565b610abf80620005498339019056fe608060405234801561001057600080fd5b50604080516020810190915260008082529061002c8282610033565b5050610537565b6000806000806000336001600160a01b031663890357306040518163ffffffff1660e01b815260040160a06040518083038186803b15801561007457600080fd5b505afa158015610088573d6000803e3d6000fd5b505050506040513d60a081101561009e57600080fd5b5080516020808301516040808501516060860151608090960151825163059659e960e41b81529251959b509299509750939550935033926359659e909260048083019392829003018186803b1580156100f657600080fd5b505afa15801561010a573d6000803e3d6000fd5b505050506040513d602081101561012057600080fd5b5051604080516001600160a01b03808916602483015280881660448301528616606482015262ffffff85166084820152600284900b60a4808301919091528251808303909101815260c4909101909152602081810180516001600160e01b031662ef782f60e31b17905291985096506101a490889088906100316101ad821b17901c565b50505050505050565b6101c08261030260201b6101791760201c565b6101fb5760405162461bcd60e51b8152600401808060200182810382526025815260200180610a406025913960400191505060405180910390fd5b610273826001600160a01b0316635c60da1b6040518163ffffffff1660e01b815260040160206040518083038186803b15801561023757600080fd5b505afa15801561024b573d6000803e3d6000fd5b505050506040513d602081101561026157600080fd5b5051610302602090811b61017917901c565b6102ae5760405162461bcd60e51b8152600401808060200182810382526034815260200180610a8b6034913960400191505060405180910390fd5b6000805160206109ff8339815191528281558151156102fd576102fb6102d2610308565b83604051806060016040528060218152602001610a1f6021913961037b60201b61017f1760201c565b505b505050565b3b151590565b6000610312610480565b6001600160a01b0316635c60da1b6040518163ffffffff1660e01b815260040160206040518083038186803b15801561034a57600080fd5b505afa15801561035e573d6000803e3d6000fd5b505050506040513d602081101561037457600080fd5b5051905090565b606061038684610302565b6103c15760405162461bcd60e51b8152600401808060200182810382526026815260200180610a656026913960400191505060405180910390fd5b600080856001600160a01b0316856040518082805190602001908083835b602083106103fe5780518252601f1990920191602091820191016103df565b6001836020036101000a038019825116818451168082178552505050505050905001915050600060405180830381855af49150503d806000811461045e576040519150601f19603f3d011682016040523d82523d6000602084013e610463565b606091505b509092509050610474828286610493565b925050505b9392505050565b6000805160206109ff8339815191525490565b606083156104a2575081610479565b8251156104b25782518084602001fd5b8160405162461bcd60e51b81526004018080602001828103825283818151815260200191508051906020019080838360005b838110156104fc5781810151838201526020016104e4565b50505050905090810190601f1680156105295780820380516001836020036101000a031916815260200191505b509250505060405180910390fd5b6104b9806105466000396000f3fe60806040523661001357610011610017565b005b6100115b61001f61002f565b61002f61002a610283565b6102f6565b565b61003a82610179565b6100755760405162461bcd60e51b81526004018080602001828103825260258152602001806104056025913960400191505060405180910390fd5b6100e2826001600160a01b0316635c60da1b6040518163ffffffff1660e01b815260040160206040518083038186803b1580156100b157600080fd5b505afa1580156100c5573d6000803e3d6000fd5b505050506040513d60208110156100db57600080fd5b5051610179565b61011d5760405162461bcd60e51b81526004018080602001828103825260348152602001806104506034913960400191505060405180910390fd5b7fa3f0ad74e5423aebfd80d3ef4346578335a9a72aeaee59ff6cb3582b35133d5082815581511561017457610172610153610283565b836040518060600160405280602181526020016103e46021913961017f565b505b505050565b3b151590565b606061018a84610179565b6101c55760405162461bcd60e51b815260040180806020018281038252602681526020018061042a6026913960400191505060405180910390fd5b600080856001600160a01b0316856040518082805190602001908083835b602083106102025780518252601f1990920191602091820191016101e3565b6001836020036101000a038019825116818451168082178552505050505050905001915050600060405180830381855af49150503d8060008114610262576040519150601f19603f3d011682016040523d82523d6000602084013e610267565b606091505b509150915061027782828661031a565b925050505b9392505050565b600061028d6103be565b6001600160a01b0316635c60da1b6040518163ffffffff1660e01b815260040160206040518083038186803b1580156102c557600080fd5b505afa1580156102d9573d6000803e3d6000fd5b505050506040513d60208110156102ef57600080fd5b5051905090565b3660008037600080366000845af43d6000803e808015610315573d6000f35b3d6000fd5b6060831561032957508161027c565b8251156103395782518084602001fd5b8160405162461bcd60e51b81526004018080602001828103825283818151815260200191508051906020019080838360005b8381101561038357818101518382015260200161036b565b50505050905090810190601f1680156103b05780820380516001836020036101000a031916815260200191505b509250505060405180910390fd5b7fa3f0ad74e5423aebfd80d3ef4346578335a9a72aeaee59ff6cb3582b35133d50549056fe426561636f6e50726f78793a2066756e6374696f6e2063616c6c206661696c6564426561636f6e50726f78793a20626561636f6e206973206e6f74206120636f6e7472616374416464726573733a2064656c65676174652063616c6c20746f206e6f6e2d636f6e7472616374426561636f6e50726f78793a20626561636f6e20696d706c656d656e746174696f6e206973206e6f74206120636f6e7472616374a26469706673582212209c65523d67f8afadf51e47175e851044339c6f41c8b6bf4085f369c20b52750064736f6c63430007060033a3f0ad74e5423aebfd80d3ef4346578335a9a72aeaee59ff6cb3582b35133d50426561636f6e50726f78793a2066756e6374696f6e2063616c6c206661696c6564426561636f6e50726f78793a20626561636f6e206973206e6f74206120636f6e7472616374416464726573733a2064656c65676174652063616c6c20746f206e6f6e2d636f6e7472616374426561636f6e50726f78793a20626561636f6e20696d706c656d656e746174696f6e206973206e6f74206120636f6e74726163744f776e61626c653a206e6577206f776e657220697320746865207a65726f20616464726573735570677261646561626c65426561636f6e3a20696d706c656d656e746174696f6e206973206e6f74206120636f6e7472616374a2646970667358221220a261af3e6c1c3a36cfe6bd5b82ef21bc90719be189a29adb980007d1ff69f8bf64736f6c634300070600335570677261646561626c65426561636f6e3a20696d706c656d656e746174696f6e206973206e6f74206120636f6e7472616374","linkReferences":{}},"methodIdentifiers":{"POOL_PROXY_INIT_CODE()":"885fa0a0","POOL_PROXY_INIT_CODE_HASH()":"2c2ad332","implementation()":"5c60da1b","owner()":"8da5cb5b","renounceOwnership()":"715018a6","transferOwnership(address)":"f2fde38b","upgradeTo(address)":"3659cfe6"},"id":60}