{"abi":[{"type":"constructor","inputs":[],"stateMutability":"nonpayable"},{"type":"function","name":"burn","inputs":[{"name":"tickLower","type":"int24","internalType":"int24"},{"name":"tickUpper","type":"int24","internalType":"int24"},{"name":"amount","type":"uint128","internalType":"uint128"}],"outputs":[{"name":"amount0","type":"uint256","internalType":"uint256"},{"name":"amount1","type":"uint256","internalType":"uint256"}],"stateMutability":"nonpayable"},{"type":"function","name":"collect","inputs":[{"name":"recipient","type":"address","internalType":"address"},{"name":"tickLower","type":"int24","internalType":"int24"},{"name":"tickUpper","type":"int24","internalType":"int24"},{"name":"amount0Requested","type":"uint128","internalType":"uint128"},{"name":"amount1Requested","type":"uint128","internalType":"uint128"}],"outputs":[{"name":"amount0","type":"uint128","internalType":"uint128"},{"name":"amount1","type":"uint128","internalType":"uint128"}],"stateMutability":"nonpayable"},{"type":"function","name":"factory","inputs":[],"outputs":[{"name":"","type":"address","internalType":"address"}],"stateMutability":"view"},{"type":"function","name":"fee","inputs":[],"outputs":[{"name":"","type":"uint24","internalType":"uint24"}],"stateMutability":"view"},{"type":"function","name":"feeGrowthGlobal0X128","inputs":[],"outputs":[{"name":"","type":"uint256","internalType":"uint256"}],"stateMutability":"view"},{"type":"function","name":"feeGrowthGlobal1X128","inputs":[],"outputs":[{"name":"","type":"uint256","internalType":"uint256"}],"stateMutability":"view"},{"type":"function","name":"flash","inputs":[{"name":"recipient","type":"address","internalType":"address"},{"name":"amount0","type":"uint256","internalType":"uint256"},{"name":"amount1","type":"uint256","internalType":"uint256"},{"name":"data","type":"bytes","internalType":"bytes"}],"outputs":[],"stateMutability":"nonpayable"},{"type":"function","name":"governance","inputs":[],"outputs":[{"name":"","type":"address","internalType":"address"}],"stateMutability":"view"},{"type":"function","name":"increaseObservationCardinalityNext","inputs":[{"name":"observationCardinalityNext","type":"uint16","internalType":"uint16"}],"outputs":[],"stateMutability":"nonpayable"},{"type":"function","name":"initialize","inputs":[{"name":"sqrtPriceX96","type":"uint160","internalType":"uint160"}],"outputs":[],"stateMutability":"nonpayable"},{"type":"function","name":"initializeImmutables","inputs":[{"name":"factory_","type":"address","internalType":"address"},{"name":"token0_","type":"address","internalType":"address"},{"name":"token1_","type":"address","internalType":"address"},{"name":"fee_","type":"uint24","internalType":"uint24"},{"name":"tickSpacing_","type":"int24","internalType":"int24"}],"outputs":[],"stateMutability":"nonpayable"},{"type":"function","name":"liquidity","inputs":[],"outputs":[{"name":"","type":"uint128","internalType":"uint128"}],"stateMutability":"view"},{"type":"function","name":"maxLiquidityPerTick","inputs":[],"outputs":[{"name":"","type":"uint128","internalType":"uint128"}],"stateMutability":"view"},{"type":"function","name":"mint","inputs":[{"name":"recipient","type":"address","internalType":"address"},{"name":"tickLower","type":"int24","internalType":"int24"},{"name":"tickUpper","type":"int24","internalType":"int24"},{"name":"amount","type":"uint128","internalType":"uint128"},{"name":"data","type":"bytes","internalType":"bytes"}],"outputs":[{"name":"amount0","type":"uint256","internalType":"uint256"},{"name":"amount1","type":"uint256","internalType":"uint256"}],"stateMutability":"nonpayable"},{"type":"function","name":"observations","inputs":[{"name":"","type":"uint256","internalType":"uint256"}],"outputs":[{"name":"blockTimestamp","type":"uint32","internalType":"uint32"},{"name":"tickCumulative","type":"int56","internalType":"int56"},{"name":"secondsPerLiquidityCumulativeX128","type":"uint160","internalType":"uint160"},{"name":"initialized","type":"bool","internalType":"bool"}],"stateMutability":"view"},{"type":"function","name":"observe","inputs":[{"name":"secondsAgos","type":"uint32[]","internalType":"uint32[]"}],"outputs":[{"name":"tickCumulatives","type":"int56[]","internalType":"int56[]"},{"name":"secondsPerLiquidityCumulativeX128s","type":"uint160[]","internalType":"uint160[]"}],"stateMutability":"view"},{"type":"function","name":"positionManager","inputs":[],"outputs":[{"name":"","type":"address","internalType":"address"}],"stateMutability":"view"},{"type":"function","name":"positions","inputs":[{"name":"","type":"bytes32","internalType":"bytes32"}],"outputs":[{"name":"liquidity","type":"uint128","internalType":"uint128"},{"name":"feeGrowthInside0LastX128","type":"uint256","internalType":"uint256"},{"name":"feeGrowthInside1LastX128","type":"uint256","internalType":"uint256"},{"name":"tokensOwed0","type":"uint128","internalType":"uint128"},{"name":"tokensOwed1","type":"uint128","internalType":"uint128"}],"stateMutability":"view"},{"type":"function","name":"slot0","inputs":[],"outputs":[{"name":"sqrtPriceX96","type":"uint160","internalType":"uint160"},{"name":"tick","type":"int24","internalType":"int24"},{"name":"observationIndex","type":"uint16","internalType":"uint16"},{"name":"observationCardinality","type":"uint16","internalType":"uint16"},{"name":"observationCardinalityNext","type":"uint16","internalType":"uint16"},{"name":"feeProtocolNum","type":"uint8","internalType":"uint8"},{"name":"feeProtocolDen","type":"uint8","internalType":"uint8"},{"name":"unlocked","type":"bool","internalType":"bool"}],"stateMutability":"view"},{"type":"function","name":"snapshotCumulativesInside","inputs":[{"name":"tickLower","type":"int24","internalType":"int24"},{"name":"tickUpper","type":"int24","internalType":"int24"}],"outputs":[{"name":"tickCumulativeInside","type":"int56","internalType":"int56"},{"name":"secondsPerLiquidityInsideX128","type":"uint160","internalType":"uint160"},{"name":"secondsInside","type":"uint32","internalType":"uint32"}],"stateMutability":"view"},{"type":"function","name":"swap","inputs":[{"name":"recipient","type":"address","internalType":"address"},{"name":"zeroForOne","type":"bool","internalType":"bool"},{"name":"amountSpecified","type":"int256","internalType":"int256"},{"name":"sqrtPriceLimitX96","type":"uint160","internalType":"uint160"},{"name":"data","type":"bytes","internalType":"bytes"}],"outputs":[{"name":"amount0","type":"int256","internalType":"int256"},{"name":"amount1","type":"int256","internalType":"int256"}],"stateMutability":"nonpayable"},{"type":"function","name":"tickBitmap","inputs":[{"name":"","type":"int16","internalType":"int16"}],"outputs":[{"name":"","type":"uint256","internalType":"uint256"}],"stateMutability":"view"},{"type":"function","name":"tickSpacing","inputs":[],"outputs":[{"name":"","type":"int24","internalType":"int24"}],"stateMutability":"view"},{"type":"function","name":"ticks","inputs":[{"name":"","type":"int24","internalType":"int24"}],"outputs":[{"name":"liquidityGross","type":"uint128","internalType":"uint128"},{"name":"liquidityNet","type":"int128","internalType":"int128"},{"name":"feeGrowthOutside0X128","type":"uint256","internalType":"uint256"},{"name":"feeGrowthOutside1X128","type":"uint256","internalType":"uint256"},{"name":"tickCumulativeOutside","type":"int56","internalType":"int56"},{"name":"secondsPerLiquidityOutsideX128","type":"uint160","internalType":"uint160"},{"name":"secondsOutside","type":"uint32","internalType":"uint32"},{"name":"initialized","type":"bool","internalType":"bool"}],"stateMutability":"view"},{"type":"function","name":"token0","inputs":[],"outputs":[{"name":"","type":"address","internalType":"address"}],"stateMutability":"view"},{"type":"function","name":"token1","inputs":[],"outputs":[{"name":"","type":"address","internalType":"address"}],"stateMutability":"view"},{"type":"event","name":"Burn","inputs":[{"name":"owner","type":"address","indexed":true,"internalType":"address"},{"name":"tickLower","type":"int24","indexed":true,"internalType":"int24"},{"name":"tickUpper","type":"int24","indexed":true,"internalType":"int24"},{"name":"amount","type":"uint128","indexed":false,"internalType":"uint128"},{"name":"amount0","type":"uint256","indexed":false,"internalType":"uint256"},{"name":"amount1","type":"uint256","indexed":false,"internalType":"uint256"}],"anonymous":false},{"type":"event","name":"Collect","inputs":[{"name":"owner","type":"address","indexed":true,"internalType":"address"},{"name":"recipient","type":"address","indexed":false,"internalType":"address"},{"name":"tickLower","type":"int24","indexed":true,"internalType":"int24"},{"name":"tickUpper","type":"int24","indexed":true,"internalType":"int24"},{"name":"amount0","type":"uint128","indexed":false,"internalType":"uint128"},{"name":"amount1","type":"uint128","indexed":false,"internalType":"uint128"}],"anonymous":false},{"type":"event","name":"CollectProtocol","inputs":[{"name":"sender","type":"address","indexed":true,"internalType":"address"},{"name":"recipient","type":"address","indexed":true,"internalType":"address"},{"name":"amount0","type":"uint128","indexed":false,"internalType":"uint128"},{"name":"amount1","type":"uint128","indexed":false,"internalType":"uint128"}],"anonymous":false},{"type":"event","name":"Flash","inputs":[{"name":"sender","type":"address","indexed":true,"internalType":"address"},{"name":"recipient","type":"address","indexed":true,"internalType":"address"},{"name":"amount0","type":"uint256","indexed":false,"internalType":"uint256"},{"name":"amount1","type":"uint256","indexed":false,"internalType":"uint256"},{"name":"paid0","type":"uint256","indexed":false,"internalType":"uint256"},{"name":"paid1","type":"uint256","indexed":false,"internalType":"uint256"}],"anonymous":false},{"type":"event","name":"IncreaseObservationCardinalityNext","inputs":[{"name":"observationCardinalityNextOld","type":"uint16","indexed":false,"internalType":"uint16"},{"name":"observationCardinalityNextNew","type":"uint16","indexed":false,"internalType":"uint16"}],"anonymous":false},{"type":"event","name":"Initialize","inputs":[{"name":"sqrtPriceX96","type":"uint160","indexed":false,"internalType":"uint160"},{"name":"tick","type":"int24","indexed":false,"internalType":"int24"}],"anonymous":false},{"type":"event","name":"Mint","inputs":[{"name":"sender","type":"address","indexed":false,"internalType":"address"},{"name":"owner","type":"address","indexed":true,"internalType":"address"},{"name":"tickLower","type":"int24","indexed":true,"internalType":"int24"},{"name":"tickUpper","type":"int24","indexed":true,"internalType":"int24"},{"name":"amount","type":"uint128","indexed":false,"internalType":"uint128"},{"name":"amount0","type":"uint256","indexed":false,"internalType":"uint256"},{"name":"amount1","type":"uint256","indexed":false,"internalType":"uint256"}],"anonymous":false},{"type":"event","name":"SetFeeProtocol","inputs":[{"name":"feeProtocolNumeratorOld","type":"uint8","indexed":false,"internalType":"uint8"},{"name":"feeProtocolDenominatorOld","type":"uint8","indexed":false,"internalType":"uint8"},{"name":"feeProtocolNumeratorNew","type":"uint8","indexed":false,"internalType":"uint8"},{"name":"feeProtocolDenominatorNew","type":"uint8","indexed":false,"internalType":"uint8"}],"anonymous":false},{"type":"event","name":"Swap","inputs":[{"name":"sender","type":"address","indexed":true,"internalType":"address"},{"name":"recipient","type":"address","indexed":true,"internalType":"address"},{"name":"amount0","type":"int256","indexed":false,"internalType":"int256"},{"name":"amount1","type":"int256","indexed":false,"internalType":"int256"},{"name":"sqrtPriceX96","type":"uint160","indexed":false,"internalType":"uint160"},{"name":"liquidity","type":"uint128","indexed":false,"internalType":"uint128"},{"name":"tick","type":"int24","indexed":false,"internalType":"int24"}],"anonymous":false}],"bytecode":{"object":"0x608060405234801561001057600080fd5b506201000680546001600160a01b0319166001179055615429806100356000396000f3fe608060405234801561001057600080fd5b506004361061018e5760003560e01c80635aa6e675116100de578063c45a015511610097578063ddca3f4311610071578063ddca3f43146107d0578063f3058399146107f0578063f30dba93146107f8578063f637731d1461087a5761018e565b8063c45a0155146107a1578063d0c93a7c146107a9578063d21220a7146107c85761018e565b80635aa6e675146105ed57806370cf754a146105f5578063791b98bc146105fd578063883bdbfd14610605578063a34123a71461070c578063a38807f2146107465761018e565b80633850c7bd1161014b578063490e6cbc11610125578063490e6cbc1461046a5780634f1eb3d8146104f4578063514ea4bf146105745780635339c296146105cd5761018e565b80633850c7bd1461034c5780633c8a7d8d146103b057806346141319146104505761018e565b8063077bc178146101935780630dfe1681146101df578063128acb08146102035780631a686502146102b0578063252c09d7146102d457806332148f671461032b575b600080fd5b6101dd600480360360a08110156101a957600080fd5b506001600160a01b03813581169160208101358216916040820135169062ffffff606082013516906080013560020b6108a0565b005b6101e7610a9e565b604080516001600160a01b039092168252519081900360200190f35b610297600480360360a081101561021957600080fd5b6001600160a01b0382358116926020810135151592604082013592606083013516919081019060a081016080820135600160201b81111561025957600080fd5b82018360208201111561026b57600080fd5b803590602001918460018302840111600160201b8311171561028c57600080fd5b509092509050610aaf565b6040805192835260208301919091528051918290030190f35b6102b861174e565b604080516001600160801b039092168252519081900360200190f35b6102f1600480360360208110156102ea57600080fd5b503561175d565b6040805163ffffffff909516855260069390930b60208501526001600160a01b039091168383015215156060830152519081900360800190f35b6101dd6004803603602081101561034157600080fd5b503561ffff166117a2565b610354611895565b604080516001600160a01b03909916895260029790970b602089015261ffff95861688880152938516606088015291909316608086015260ff92831660a086015290911660c0840152151560e083015251908190036101000190f35b610297600480360360a08110156103c657600080fd5b6001600160a01b03823516916020810135600290810b92604083013590910b916001600160801b036060820135169181019060a081016080820135600160201b81111561041257600080fd5b82018360208201111561042457600080fd5b803590602001918460018302840111600160201b8311171561044557600080fd5b5090925090506118f0565b610458611bfa565b60408051918252519081900360200190f35b6101dd6004803603608081101561048057600080fd5b6001600160a01b038235169160208101359160408201359190810190608081016060820135600160201b8111156104b657600080fd5b8201836020820111156104c857600080fd5b803590602001918460018302840111600160201b831117156104e957600080fd5b509092509050611c00565b610545600480360360a081101561050a57600080fd5b506001600160a01b03813516906020810135600290810b91604081013590910b906001600160801b03606082013581169160800135166120ef565b60405180836001600160801b03168152602001826001600160801b031681526020019250505060405180910390f35b6105916004803603602081101561058a57600080fd5b50356122eb565b604080516001600160801b0396871681526020810195909552848101939093529084166060840152909216608082015290519081900360a00190f35b610458600480360360208110156105e357600080fd5b503560010b612328565b6101e761233a565b6102b861234b565b6101e761235c565b6106736004803603602081101561061b57600080fd5b810190602081018135600160201b81111561063557600080fd5b82018360208201111561064757600080fd5b803590602001918460208302840111600160201b8311171561066857600080fd5b50909250905061236d565b604051808060200180602001838103835285818151815260200191508051906020019060200280838360005b838110156106b757818101518382015260200161069f565b50505050905001838103825284818151815260200191508051906020019060200280838360005b838110156106f65781810151838201526020016106de565b5050505090500194505050505060405180910390f35b6102976004803603606081101561072257600080fd5b508035600290810b91602081013590910b90604001356001600160801b03166123f2565b6107706004803603604081101561075c57600080fd5b508035600290810b9160200135900b61256d565b6040805160069490940b84526001600160a01b03909216602084015263ffffffff1682820152519081900360600190f35b6101e7612763565b6107b1612774565b6040805160029290920b8252519081900360200190f35b6101e7612786565b6107d8612797565b6040805162ffffff9092168252519081900360200190f35b6104586127ab565b6108186004803603602081101561080e57600080fd5b503560020b6127b1565b604080516001600160801b039099168952600f9790970b602089015287870195909552606087019390935260069190910b60808601526001600160a01b031660a085015263ffffffff1660c0840152151560e083015251908190036101000190f35b6101dd6004803603602081101561089057600080fd5b50356001600160a01b031661281b565b62010006546001600160a01b0316156108e6576040805162461bcd60e51b815260206004820152600360248201526241494960e81b604482015290519081900360640190fd5b6201000b805462ffffff808516600160801b0262ffffff60801b19600286900b909216600160981b0262ffffff60981b1990931692909217161790556201000a80546001600160a01b038086166001600160a01b031992831617909255620100098054838816908316179055620100068054928816929091168217905560408051638da5cb5b60e01b81529051638da5cb5b91600481810192602092909190829003018186803b15801561099957600080fd5b505afa1580156109ad573d6000803e3d6000fd5b505050506040513d60208110156109c357600080fd5b50516201000780546001600160a01b0319166001600160a01b039283161790819055604080516335116f6f60e11b815290519190921691636a22dede916004808301926020929190829003018186803b158015610a1f57600080fd5b505afa158015610a33573d6000803e3d6000fd5b505050506040513d6020811015610a4957600080fd5b50516201000880546001600160a01b0319166001600160a01b03909216919091179055610a7581612a4d565b6201000b80546001600160801b0319166001600160801b03929092169190911790555050505050565b62010009546001600160a01b031681565b6000803215610b75576201000760009054906101000a90046001600160a01b03166001600160a01b031663b0f479a16040518163ffffffff1660e01b815260040160206040518083038186803b158015610b0857600080fd5b505afa158015610b1c573d6000803e3d6000fd5b505050506040513d6020811015610b3257600080fd5b50516001600160a01b03163314610b75576040805162461bcd60e51b815260206004820152600260248201526124a960f11b604482015290519081900360640190fd5b85610bac576040805162461bcd60e51b8152602060048201526002602482015261415360f01b604482015290519081900360640190fd5b60408051610100810182526000546001600160a01b0381168252600160a01b8104600290810b810b900b602083015261ffff600160b81b8204811693830193909352600160c81b810483166060830152600160d81b8104909216608082015260ff600160e81b8304811660a0830152600160f01b8304811660c0830152600160f81b909204909116151560e08201819052610c74576040805162461bcd60e51b81526020600482015260036024820152624c4f4b60e81b604482015290519081900360640190fd5b87610cbf5780600001516001600160a01b0316866001600160a01b0316118015610cba575073fffd8963efd1fc6a506488495d951d5263988d266001600160a01b038716105b610cf1565b80600001516001600160a01b0316866001600160a01b0316108015610cf157506401000276a36001600160a01b038716115b610d28576040805162461bcd60e51b815260206004820152600360248201526214d41360ea1b604482015290519081900360640190fd5b600080546001600160f81b0316815560408051610120810182526201000b5462ffffff600160801b820416825260a08086015160ff908116602085015260c08701511693830193909352600160981b9004600290810b900b60608201526003546001600160801b03166080820152908101610da1612ab9565b63ffffffff168152602001600060060b815260200160006001600160a01b031681526020016000151581525090506000808913905060006040518060e001604052808b81526020016000815260200185600001516001600160a01b03168152602001856020015160020b81526020018c610e1d57600254610e21565b6001545b81526000602082015260808501516001600160801b031660409091015290505b805115801590610e675750886001600160a01b031681604001516001600160a01b031614155b156111ff57610e74615390565b60408201516001600160a01b0316815260608083015190850151610e9b916005918f612abd565b15156040830152600290810b810b60208301819052620d89e719910b1215610ecc57620d89e7196020820152610eeb565b6020810151620d89e860029190910b1315610eeb57620d89e860208201525b610ef88160200151612bff565b6001600160a01b031660608201526040820151610f6a908d610f32578b6001600160a01b031683606001516001600160a01b031611610f4c565b8b6001600160a01b031683606001516001600160a01b0316105b610f5a578260600151610f5c565b8b5b60c085015185518851612f30565b60c085015260a084015260808301526001600160a01b031660408301528215610fcc57610fa08160c00151826080015101613122565b825103825260a0810151610fc290610fb790613122565b602084015190613138565b6020830152611007565b610fd98160a00151613122565b825101825260c0810151608082015161100191610ff69101613122565b602084015190613154565b60208301525b602084015160ff16156110545760006110338260c00151866020015160ff16876040015160ff1661316a565b60c083018051829003905260a0840180519091016001600160801b03169052505b60c08201516001600160801b031615611093576110878160c00151600160801b8460c001516001600160801b031661316a565b60808301805190910190525b80606001516001600160a01b031682604001516001600160a01b031614156111be578060400151156111955783610100015161111f576110fc8460a0015160008760200151886040015188608001518a60600151600761321a909695949392919063ffffffff16565b6001600160a01b031660e0860152600690810b900b60c085015260016101008501525b600061116b82602001518e6111365760015461113c565b84608001515b8f61114b57856080015161114f565b6002545b60e089015160c08a015160a08b015160049594939291906133ac565b90508c15611177576000035b6111858360c0015182613466565b6001600160801b031660c0840152505b8b6111a45780602001516111ad565b60018160200151035b600290810b900b60608301526111f9565b80600001516001600160a01b031682604001516001600160a01b0316146111f9576111ec826040015161351c565b600290810b900b60608301525b50610e41565b836020015160020b816060015160020b146112cd5760008061124d86604001518660a00151886020015188608001518a606001518b608001516007613844909695949392919063ffffffff16565b604085015160608601516000805461ffff60c81b1916600160c81b61ffff958616021761ffff60b81b1916600160b81b95909416949094029290921762ffffff60a01b1916600160a01b62ffffff60029490940b9390931692909202919091176001600160a01b0319166001600160a01b03909116179055506112f29050565b6040810151600080546001600160a01b0319166001600160a01b039092169190911790555b8060c001516001600160801b031683608001516001600160801b0316146113385760c0810151600380546001600160801b0319166001600160801b039092169190911790555b60008b611352576201000a546001600160a01b0316611361565b62010009546001600160a01b03165b905060008c61137d5762010009546001600160a01b031661138c565b6201000a546001600160a01b03165b90508c156113a15760808301516001556113aa565b60808301516002555b8315158d1515146113c357602083015183518d036113d0565b82600001518c0383602001515b90985096508c156114e95760008712156113f2576113f2818f896000036139df565b60006113fc613b2d565b9050336001600160a01b0316639c65a7d28a8a8e8e6040518563ffffffff1660e01b815260040180858152602001848152602001806020018281038252848482818152602001925080828437600081840152601f19601f82011690508083019250505095505050505050600060405180830381600087803b15801561148057600080fd5b505af1158015611494573d6000803e3d6000fd5b505050506114a0613b2d565b6114aa828b613c4a565b11156114e3576040805162461bcd60e51b815260206004820152600360248201526249494160e81b604482015290519081900360640190fd5b506115f3565b600088121561150057611500818f8a6000036139df565b600061150a613c5a565b9050336001600160a01b0316639c65a7d28a8a8e8e6040518563ffffffff1660e01b815260040180858152602001848152602001806020018281038252848482818152602001925080828437600081840152601f19601f82011690508083019250505095505050505050600060405180830381600087803b15801561158e57600080fd5b505af11580156115a2573d6000803e3d6000fd5b505050506115ae613c5a565b6115b8828a613c4a565b11156115f1576040805162461bcd60e51b815260206004820152600360248201526249494160e81b604482015290519081900360640190fd5b505b60a08301516001600160801b03161561169957611699826201000660009054906101000a90046001600160a01b03166001600160a01b03166361d027b36040518163ffffffff1660e01b815260040160206040518083038186803b15801561165a57600080fd5b505afa15801561166e573d6000803e3d6000fd5b505050506040513d602081101561168457600080fd5b505160a08601516001600160801b03166139df565b8d6001600160a01b0316336001600160a01b03167fc42079f94a6350d7e6235f29174924f928cc2ac818eb64fed8004e115fbcca678a8a87604001518860c00151896060015160405180868152602001858152602001846001600160a01b03168152602001836001600160801b031681526020018260020b81526020019550505050505060405180910390a35050600080546001600160f81b0316600160f81b17905550939a92995091975050505050505050565b6003546001600160801b031681565b60078161ffff811061176e57600080fd5b015463ffffffff81169150600160201b810460060b90600160581b81046001600160a01b031690600160f81b900460ff1684565b600054600160f81b900460ff166117e6576040805162461bcd60e51b81526020600482015260036024820152624c4f4b60e81b604482015290519081900360640190fd5b600080546001600160f81b0316808255600160d81b900461ffff169061180e60078385613cd6565b6000805461ffff808416600160d81b810261ffff60d81b199093169290921790925591925083161461187b576040805161ffff80851682528316602082015281517fac49e518f90a358f652e4400164f05a5d8f7e35e7747279bc3a93dbf584e125a929181900390910190a15b5050600080546001600160f81b0316600160f81b17905550565b6000546001600160a01b03811690600160a01b810460020b9061ffff600160b81b8204811691600160c81b8104821691600160d81b8204169060ff600160e81b8204811691600160f01b8104821691600160f81b9091041688565b600080548190600160f81b900460ff16611937576040805162461bcd60e51b81526020600482015260036024820152624c4f4b60e81b604482015290519081900360640190fd5b600080546001600160f81b0316905562010008546001600160a01b0316331461198d576040805162461bcd60e51b815260206004820152600360248201526249504d60e81b604482015290519081900360640190fd5b6000856001600160801b0316116119a357600080fd5b6000806119f160405180608001604052808c6001600160a01b031681526020018b60020b81526020018a60020b81526020016119e78a6001600160801b0316613d79565b600f0b9052613d8a565b92509250508193508092506000806000861115611a1357611a10613b2d565b91505b8415611a2457611a21613c5a565b90505b336001600160a01b031663c848b07d87878b8b6040518563ffffffff1660e01b815260040180858152602001848152602001806020018281038252848482818152602001925080828437600081840152601f19601f82011690508083019250505095505050505050600060405180830381600087803b158015611aa657600080fd5b505af1158015611aba573d6000803e3d6000fd5b505050506000861115611b1157611acf613b2d565b611ad98388613c4a565b1115611b11576040805162461bcd60e51b815260206004820152600260248201526104d360f41b604482015290519081900360640190fd5b8415611b6157611b1f613c5a565b611b298287613c4a565b1115611b61576040805162461bcd60e51b81526020600482015260026024820152614d3160f01b604482015290519081900360640190fd5b8960020b8b60020b8d6001600160a01b03167f7a53080ba414158be7ec69b987b5fb7d07dee101fe85488f0853ae16239d0bde338d8b8b60405180856001600160a01b03168152602001846001600160801b0316815260200183815260200182815260200194505050505060405180910390a45050600080546001600160f81b0316600160f81b17905550919890975095505050505050565b60025481565b600054600160f81b900460ff16611c44576040805162461bcd60e51b81526020600482015260036024820152624c4f4b60e81b604482015290519081900360640190fd5b600080546001600160f81b03169055620100065460408051631975871b60e21b815290516001600160a01b03909216916365d61c6c91600480820192602092909190829003018186803b158015611c9a57600080fd5b505afa158015611cae573d6000803e3d6000fd5b505050506040513d6020811015611cc457600080fd5b5051611cfc576040805162461bcd60e51b8152602060048201526002602482015261119160f21b604482015290519081900360640190fd5b6003546001600160801b031680611d3e576040805162461bcd60e51b81526020600482015260016024820152601360fa1b604482015290519081900360640190fd5b62010009546201000a546201000b5460009283926001600160a01b03918216929116908390611d7e908b90600160801b900462ffffff16620f4240613fd1565b6201000b54909150600090611da4908b90600160801b900462ffffff16620f4240613fd1565b90506000611db0613b2d565b90506000611dbc613c5a565b90508c15611dcf57611dcf868f8f6139df565b8b15611de057611de0858f8e6139df565b336001600160a01b031663f588d8fe85858e8e6040518563ffffffff1660e01b815260040180858152602001848152602001806020018281038252848482818152602001925080828437600081840152601f19601f82011690508083019250505095505050505050600060405180830381600087803b158015611e6257600080fd5b505af1158015611e76573d6000803e3d6000fd5b505050506000611e84613b2d565b90506000611e90613c5a565b905060006201000660009054906101000a90046001600160a01b03166001600160a01b03166361d027b36040518163ffffffff1660e01b815260040160206040518083038186803b158015611ee457600080fd5b505afa158015611ef8573d6000803e3d6000fd5b505050506040513d6020811015611f0e57600080fd5b5051905082611f1d8689613c4a565b1115611f55576040805162461bcd60e51b8152602060048201526002602482015261046360f41b604482015290519081900360640190fd5b81611f608588613c4a565b1115611f98576040805162461bcd60e51b8152602060048201526002602482015261463160f01b604482015290519081900360640190fd5b8483039a5083820399508a156120035760008054611fcb908d9060ff600160e81b8204811691600160f01b90041661316a565b90508015611fde57611fde8a83836139df565b611ff8818d03600160801b8f6001600160801b031661316a565b600180549091019055505b8915612064576000805461202c908c9060ff600160e81b8204811691600160f01b90041661316a565b9050801561203f5761203f8983836139df565b612059818c03600160801b8f6001600160801b031661316a565b600280549091019055505b505050505050505050876001600160a01b0316336001600160a01b03167fbdbdb71d7860376ba52b25a5028beea23581364a40522f6bcfb86bb1f2dca633898986866040518085815260200184815260200183815260200182815260200194505050505060405180910390a35050600080546001600160f81b0316600160f81b179055505050505050565b600080548190600160f81b900460ff16612136576040805162461bcd60e51b81526020600482015260036024820152624c4f4b60e81b604482015290519081900360640190fd5b600080546001600160f81b03168155612152600633898961400b565b60038101549091506001600160801b03908116908616116121735784612182565b60038101546001600160801b03165b60038201549093506001600160801b03600160801b9091048116908516116121aa57836121c0565b6003810154600160801b90046001600160801b03165b91506001600160801b03831615612214576003810180546001600160801b031981166001600160801b039182168690038216179091556201000954612214916001600160a01b03909116908a9086166139df565b6001600160801b03821615612269576003810180546001600160801b03600160801b8083048216869003821602918116919091179091556201000a54612269916001600160a01b03909116908a9085166139df565b604080516001600160a01b038a1681526001600160801b0380861660208301528416818301529051600288810b92908a900b9133917f70935338e69775456a85ddef226c395fb668b63fa0115f5f20610b388e6ca9c0919081900360600190a450600080546001600160f81b0316600160f81b17905590969095509350505050565b60066020526000908152604090208054600182015460028301546003909301546001600160801b0392831693919281811691600160801b90041685565b60056020526000908152604090205481565b62010007546001600160a01b031681565b6201000b546001600160801b031681565b62010008546001600160a01b031681565b6060806123e761237b612ab9565b858580806020026020016040519081016040528093929190818152602001838360200280828437600092018290525054600354600796959450600160a01b820460020b935061ffff600160b81b8304811693506001600160801b0390911691600160c81b90041661406f565b915091509250929050565b600080548190600160f81b900460ff16612439576040805162461bcd60e51b81526020600482015260036024820152624c4f4b60e81b604482015290519081900360640190fd5b600080546001600160f81b0316815560408051608081018252338152600288810b602083015287900b918101919091528190819061249490606081016124876001600160801b038a16613d79565b600003600f0b9052613d8a565b92509250925081600003945080600003935060008511806124b55750600084115b156124f4576003830180546001600160801b038082168089018216600160801b93849004831689019092169092029091176001600160801b0319161790555b604080516001600160801b0388168152602081018790528082018690529051600289810b92908b900b9133917f0c396cd989a39f4459b5fa1aed6a9a8dcdbc45908acfd67e028cd568da98982c919081900360600190a45050600080546001600160f81b0316600160f81b179055509094909350915050565b600080600061257c85856141c9565b600285810b810b60009081526004602052604080822087840b90930b825281206003830154600681900b93600160381b82046001600160a01b0316928492600160d81b810463ffffffff169284929091600160f81b900460ff16806125e057600080fd5b6003820154600681900b9850600160381b81046001600160a01b03169650600160d81b810463ffffffff169450600160f81b900460ff168061262157600080fd5b505060408051610100810182526000546001600160a01b0381168252600160a01b8104600290810b810b810b6020840181905261ffff600160b81b8404811695850195909552600160c81b830485166060850152600160d81b8304909416608084015260ff600160e81b8304811660a0850152600160f01b8304811660c0850152600160f81b909204909116151560e08301529093508e810b91900b121590506126d95750939094039650900393509003905061275c565b8a60020b816020015160020b121561274d5760006126f5612ab9565b602083015160408401516003546060860151939450600093849361272b936007938893879392916001600160801b03169061321a565b9a9003989098039b50509490960392909203965090910303925061275c915050565b50949093039650039350900390505b9250925092565b62010006546001600160a01b031681565b6201000b54600160981b900460020b81565b6201000a546001600160a01b031681565b6201000b54600160801b900462ffffff1681565b60015481565b60046020526000908152604090208054600182015460028301546003909301546001600160801b03831693600160801b909304600f0b9290600681900b90600160381b81046001600160a01b031690600160d81b810463ffffffff1690600160f81b900460ff1688565b6000546001600160a01b03161561285e576040805162461bcd60e51b8152602060048201526002602482015261414960f01b604482015290519081900360640190fd5b60006128698261351c565b9050600080612881612879612ab9565b600790614292565b62010006546201000b546040805163b4a91cbd60e01b8152600160801b90920462ffffff166004830152805194965092945060009384936001600160a01b039093169263b4a91cbd9260248082019391829003018186803b1580156128e557600080fd5b505afa1580156128f9573d6000803e3d6000fd5b505050506040513d604081101561290f57600080fd5b50805160209182015160408051610100810182526001600160a01b038b1680825260028b810b838801819052600084860181905261ffff8d811660608701819052908d166080870181905260ff808b1660a08901819052908a1660c08901819052600160e0909901989098528354600160f81b6001600160a01b0319909116881762ffffff60a01b1916600160a01b62ffffff9888900b98909816979097029690961763ffffffff60b81b1916600160c81b9093029290921761ffff60d81b1916600160d81b9091021760ff60e81b1916600160e81b9091021760ff60f01b1916600160f01b909502949094176001600160f81b03169190911790925582519081529485015280519295509093507f98636036cb66a9c19a37435efc1e90142190214e8abeb821bdba3f2990dd4c95928290030190a1505050505050565b60008082600281900b620d89e71981612a6257fe5b05029050600083600281900b620d89e881612a7957fe5b0502905060008460020b83830360020b81612a9057fe5b0560010190508062ffffff166001600160801b03801681612aad57fe5b0493505050505b919050565b4290565b60008060008460020b8660020b81612ad157fe5b05905060008660020b128015612af857508460020b8660020b81612af157fe5b0760020b15155b15612b0257600019015b8315612b7757600080612b14836142de565b600182810b810b600090815260208d9052604090205460ff83169190911b80016000190190811680151597509294509092509085612b5957888360ff16860302612b6c565b88612b63826142f0565b840360ff168603025b965050505050612bf5565b600080612b86836001016142de565b91509150600060018260ff166001901b031990506000818b60008660010b60010b8152602001908152602001600020541690508060001415955085612bd857888360ff0360ff16866001010102612bee565b8883612be38361438f565b0360ff168660010101025b9650505050505b5094509492505050565b60008060008360020b12612c16578260020b612c1e565b8260020b6000035b9050620d89e8811115612c5c576040805162461bcd60e51b81526020600482015260016024820152601560fa1b604482015290519081900360640190fd5b600060018216612c7057600160801b612c82565b6ffffcb933bd6fad37aa2d162d1a5940015b70ffffffffffffffffffffffffffffffffff1690506002821615612cb6576ffff97272373d413259a46990580e213a0260801c5b6004821615612cd5576ffff2e50f5f656932ef12357cf3c7fdcc0260801c5b6008821615612cf4576fffe5caca7e10e4e61c3624eaa0941cd00260801c5b6010821615612d13576fffcb9843d60f6159c9db58835c9266440260801c5b6020821615612d32576fff973b41fa98c081472e6896dfb254c00260801c5b6040821615612d51576fff2ea16466c96a3843ec78b326b528610260801c5b6080821615612d70576ffe5dee046a99a2a811c461f1969c30530260801c5b610100821615612d90576ffcbe86c7900a88aedcffc83b479aa3a40260801c5b610200821615612db0576ff987a7253ac413176f2b074cf7815e540260801c5b610400821615612dd0576ff3392b0822b70005940c7a398e4b70f30260801c5b610800821615612df0576fe7159475a2c29b7443b29c7fa6e889d90260801c5b611000821615612e10576fd097f3bdfd2022b8845ad8f792aa58250260801c5b612000821615612e30576fa9f746462d870fdf8a65dc1f90e061e50260801c5b614000821615612e50576f70d869a156d2a1b890bb3df62baf32f70260801c5b618000821615612e70576f31be135f97d08fd981231505542fcfa60260801c5b62010000821615612e91576f09aa508b5b7a84e1c677de54f3e99bc90260801c5b62020000821615612eb1576e5d6af8dedb81196699c329225ee6040260801c5b62040000821615612ed0576d2216e584f5fa1ea926041bedfe980260801c5b62080000821615612eed576b048a170391f7dc42444e8fa20260801c5b60008460020b1315612f08578060001981612f0457fe5b0490505b600160201b810615612f1b576001612f1e565b60005b60ff16602082901c0192505050919050565b60008080806001600160a01b03808916908a161015818712801590612fb5576000612f698989620f42400362ffffff16620f424061316a565b905082612f8257612f7d8c8c8c6001614479565b612f8f565b612f8f8b8d8c60016144f4565b9550858110612fa0578a9650612faf565b612fac8c8b838661459f565b96505b50612fff565b81612fcc57612fc78b8b8b60006144f4565b612fd9565b612fd98a8c8b6000614479565b9350838860000310612fed57899550612fff565b612ffc8b8a8a600003856145eb565b95505b6001600160a01b038a81169087161482156130625780801561301e5750815b6130345761302f878d8c60016144f4565b613036565b855b9550808015613043575081155b61305957613054878d8c6000614479565b61305b565b845b94506130ac565b80801561306c5750815b6130825761307d8c888c6001614479565b613084565b855b9550808015613091575081155b6130a7576130a28c888c60006144f4565b6130a9565b845b94505b811580156130bc57508860000385115b156130c8578860000394505b8180156130e757508a6001600160a01b0316876001600160a01b031614155b156130f6578589039350613113565b613110868962ffffff168a620f42400362ffffff16613fd1565b93505b50505095509550955095915050565b6000600160ff1b821061313457600080fd5b5090565b8082038281131560008312151461314e57600080fd5b92915050565b8181018281121560008312151461314e57600080fd5b60008080600019858709868602925082811090839003039050806131a0576000841161319557600080fd5b508290049050613213565b8084116131ac57600080fd5b6000848688096000868103871696879004966002600389028118808a02820302808a02820302808a02820302808a02820302808a02820302808a02909103029181900381900460010186841190950394909402919094039290920491909117919091029150505b9392505050565b60008063ffffffff87166132c0576000898661ffff1661ffff811061323b57fe5b60408051608081018252919092015463ffffffff808216808452600160201b8304600690810b810b900b6020850152600160581b83046001600160a01b031694840194909452600160f81b90910460ff16151560608301529092508a16146132ac576132a9818a8988614637565b90505b8060200151816040015192509250506133a0565b8688036000806132d58c8c858c8c8c8c6146da565b91509150816000015163ffffffff168363ffffffff1614156133075781602001518260400151945094505050506133a0565b805163ffffffff8481169116141561332f5780602001518160400151945094505050506133a0565b8151815160208085015190840151918390039286039163ffffffff80841692908516910360060b8161335d57fe5b05028460200151018263ffffffff168263ffffffff1686604001518660400151036001600160a01b0316028161338f57fe5b048560400151019650965050505050505b97509795505050505050565b600295860b860b60009081526020979097526040909620600181018054909503909455938301805490920390915560038201805463ffffffff600160d81b6001600160a01b03600160381b808504821690960316909402600160381b600160d81b031990921691909117600681810b90960390950b66ffffffffffffff1666ffffffffffffff199095169490941782810485169095039093160263ffffffff60d81b1990931692909217905554600160801b9004600f0b90565b60008082600f0b12156134cb57826001600160801b03168260000384039150816001600160801b0316106134c6576040805162461bcd60e51b81526020600482015260026024820152614c5360f01b604482015290519081900360640190fd5b61314e565b826001600160801b03168284019150816001600160801b0316101561314e576040805162461bcd60e51b81526020600482015260026024820152614c4160f01b604482015290519081900360640190fd5b60006401000276a36001600160a01b03831610801590613558575073fffd8963efd1fc6a506488495d951d5263988d266001600160a01b038316105b61358d576040805162461bcd60e51b81526020600482015260016024820152602960f91b604482015290519081900360640190fd5b77ffffffffffffffffffffffffffffffffffffffff00000000602083901b166001600160801b03811160071b81811c67ffffffffffffffff811160061b90811c63ffffffff811160051b90811c61ffff811160041b90811c60ff8111600390811b91821c600f811160021b90811c918211600190811b92831c9790881196179094179092171790911717176080811061362e57607f810383901c9150613638565b80607f0383901b91505b908002607f81811c60ff83811c9190911c800280831c81831c1c800280841c81841c1c800280851c81851c1c800280861c81861c1c800280871c81871c1c800280881c81881c1c800280891c81891c1c8002808a1c818a1c1c8002808b1c818b1c1c8002808c1c818c1c1c8002808d1c818d1c1c8002808e1c9c81901c9c909c1c80029c8d901c9e9d607f198f0160401b60c09190911c678000000000000000161760c19b909b1c674000000000000000169a909a1760c29990991c672000000000000000169890981760c39790971c671000000000000000169690961760c49590951c670800000000000000169490941760c59390931c670400000000000000169290921760c69190911c670200000000000000161760c79190911c600160381b161760c89190911c6680000000000000161760c99190911c6640000000000000161760ca9190911c6620000000000000161760cb9190911c6610000000000000161760cc9190911c6608000000000000161760cd9190911c66040000000000001617693627a301d71055774c8581026f028f6481ab7f045a5af012a19d003aa9198101608090811d906fdb2df09e81959a81455e260799a0632f8301901d600281810b9083900b1461383557886001600160a01b031661381982612bff565b6001600160a01b0316111561382e5781613830565b805b613837565b815b9998505050505050505050565b6000806000898961ffff1661ffff811061385a57fe5b60408051608081018252919092015463ffffffff808216808452600160201b8304600690810b810b900b6020850152600160581b83046001600160a01b031694840194909452600160f81b90910460ff1615156060830152909250891614156138c957888592509250506133a0565b8461ffff168461ffff161180156138ea57506001850361ffff168961ffff16145b156138f7578391506138fb565b8491505b8161ffff168960010161ffff168161390f57fe5b06925061391e81898989614637565b8a8461ffff1661ffff811061392f57fe5b825191018054602084015160408501516060909501511515600160f81b026001600160f81b036001600160a01b03909616600160581b027fff0000000000000000000000000000000000000000ffffffffffffffffffffff60069390930b66ffffffffffffff16600160201b026affffffffffffff000000001963ffffffff90971663ffffffff199095169490941795909516929092171692909217929092161790555097509795505050505050565b604080516001600160a01b038481166024830152604480830185905283518084039091018152606490920183526020820180516001600160e01b031663a9059cbb60e01b1781529251825160009485949389169392918291908083835b60208310613a5b5780518252601f199092019160209182019101613a3c565b6001836020036101000a0380198251168184511680821785525050505050509050019150506000604051808303816000865af19150503d8060008114613abd576040519150601f19603f3d011682016040523d82523d6000602084013e613ac2565b606091505b5091509150818015613af0575080511580613af05750808060200190516020811015613aed57600080fd5b50515b613b26576040805162461bcd60e51b81526020600482015260026024820152612a2360f11b604482015290519081900360640190fd5b5050505050565b6201000954604080513060248083019190915282518083039091018152604490910182526020810180516001600160e01b03166370a0823160e01b17815291518151600094859485946001600160a01b039092169391928291908083835b60208310613baa5780518252601f199092019160209182019101613b8b565b6001836020036101000a038019825116818451168082178552505050505050905001915050600060405180830381855afa9150503d8060008114613c0a576040519150601f19603f3d011682016040523d82523d6000602084013e613c0f565b606091505b5091509150818015613c2357506020815110155b613c2c57600080fd5b808060200190516020811015613c4157600080fd5b50519250505090565b8082018281101561314e57600080fd5b6201000a54604080513060248083019190915282518083039091018152604490910182526020810180516001600160e01b03166370a0823160e01b17815291518151600094859485946001600160a01b0390921693919282919080838360208310613baa5780518252601f199092019160209182019101613b8b565b6000808361ffff1611613d14576040805162461bcd60e51b81526020600482015260016024820152604960f81b604482015290519081900360640190fd5b8261ffff168261ffff1611613d2a575081613213565b825b8261ffff168161ffff161015613d70576001858261ffff1661ffff8110613d4f57fe5b01805463ffffffff191663ffffffff92909216919091179055600101613d2c565b50909392505050565b80600f81900b8114612ab457600080fd5b6000806000613da1846020015185604001516141c9565b60408051610100810182526000546001600160a01b0381168252600160a01b8104600290810b810b900b602080840182905261ffff600160b81b8404811685870152600160c81b84048116606080870191909152600160d81b8504909116608086015260ff600160e81b8504811660a0870152600160f01b8504811660c0870152600160f81b909404909316151560e085015288519089015194890151928901519394613e5494919390929091906148d4565b93508460600151600f0b600014613fc957846020015160020b816020015160020b1215613ea957613ea2613e8b8660200151612bff565b613e988760400151612bff565b8760600151614a4d565b9250613fc9565b846040015160020b816020015160020b1215613f9f5760035460408201516001600160801b0390911690613efb90613edf612ab9565b6020850151606086015160808701516007949392918791613844565b6000805461ffff60c81b1916600160c81b61ffff938416021761ffff60b81b1916600160b81b939092169290920217905581516040870151613f4b9190613f4190612bff565b8860600151614a4d565b9350613f69613f5d8760200151612bff565b83516060890151614a91565b9250613f79818760600151613466565b600380546001600160801b0319166001600160801b039290921691909117905550613fc9565b613fc6613faf8660200151612bff565b613fbc8760400151612bff565b8760600151614a91565b91505b509193909250565b6000613fde84848461316a565b905060008280613fea57fe5b848609111561321357600019811061400157600080fd5b6001019392505050565b6040805160609490941b6bffffffffffffffffffffffff1916602080860191909152600293840b60e890811b60348701529290930b90911b60378401528051808403601a018152603a90930181528251928201929092206000908152929052902090565b60608060008361ffff16116140af576040805162461bcd60e51b81526020600482015260016024820152604960f81b604482015290519081900360640190fd5b865167ffffffffffffffff811180156140c757600080fd5b506040519080825280602002602001820160405280156140f1578160200160208202803683370190505b509150865167ffffffffffffffff8111801561410c57600080fd5b50604051908082528060200260200182016040528015614136578160200160208202803683370190505b50905060005b87518110156141bc576141678a8a8a848151811061415657fe5b60200260200101518a8a8a8a61321a565b84838151811061417357fe5b6020026020010184848151811061418657fe5b60200260200101826001600160a01b03166001600160a01b03168152508260060b60060b8152505050808060010191505061413c565b5097509795505050505050565b8060020b8260020b12614209576040805162461bcd60e51b8152602060048201526003602482015262544c5560e81b604482015290519081900360640190fd5b620d89e719600283900b121561424c576040805162461bcd60e51b8152602060048201526003602482015262544c4d60e81b604482015290519081900360640190fd5b620d89e8600282900b131561428e576040805162461bcd60e51b815260206004820152600360248201526254554d60e81b604482015290519081900360640190fd5b5050565b6040805160808101825263ffffffff9283168082526000602083018190529282019290925260016060909101819052835463ffffffff1916909117909116600160f81b17909155908190565b60020b600881901d9161010090910790565b60008082116142fe57600080fd5b600160801b821061431157608091821c91015b68010000000000000000821061432957604091821c91015b600160201b821061433c57602091821c91015b62010000821061434e57601091821c91015b610100821061435f57600891821c91015b6010821061436f57600491821c91015b6004821061437f57600291821c91015b60028210612ab457600101919050565b600080821161439d57600080fd5b5060ff6001600160801b038216156143b857607f19016143c0565b608082901c91505b67ffffffffffffffff8216156143d957603f19016143e1565b604082901c91505b63ffffffff8216156143f657601f19016143fe565b602082901c91505b61ffff82161561441157600f1901614419565b601082901c91505b60ff82161561442b5760071901614433565b600882901c91505b600f821615614445576003190161444d565b600482901c91505b600382161561445f5760011901614467565b600282901c91505b6001821615612ab45760001901919050565b6000836001600160a01b0316856001600160a01b03161115614499579293925b816144c6576144c1836001600160801b03168686036001600160a01b0316600160601b61316a565b6144e9565b6144e9836001600160801b03168686036001600160a01b0316600160601b613fd1565b90505b949350505050565b6000836001600160a01b0316856001600160a01b03161115614514579293925b600160601b600160e01b03606084901b166001600160a01b03868603811690871661453e57600080fd5b8361456e57866001600160a01b03166145618383896001600160a01b031661316a565b8161456857fe5b04614594565b6145946145858383896001600160a01b0316613fd1565b886001600160a01b0316614ac0565b979650505050505050565b600080856001600160a01b0316116145b657600080fd5b6000846001600160801b0316116145cc57600080fd5b816145de576144c18585856001614acb565b6144e98585856001614bac565b600080856001600160a01b03161161460257600080fd5b6000846001600160801b03161161461857600080fd5b8161462a576144c18585856000614bac565b6144e98585856000614acb565b61463f6153cc565b600085600001518503905060405180608001604052808663ffffffff1681526020018263ffffffff168660020b0288602001510160060b81526020016000856001600160801b031611614693576001614695565b845b6001600160801b031663ffffffff60801b608085901b16816146b357fe5b048860400151016001600160a01b0316815260200160011515815250915050949350505050565b6146e26153cc565b6146ea6153cc565b888561ffff1661ffff81106146fb57fe5b60408051608081018252919092015463ffffffff8116808352600160201b8204600690810b810b900b6020840152600160581b82046001600160a01b031693830193909352600160f81b900460ff1615156060820152925061475f90899089614c8f565b15614797578663ffffffff16826000015163ffffffff161415614781576133a0565b8161478e83898988614637565b915091506133a0565b888361ffff168660010161ffff16816147ac57fe5b0661ffff1661ffff81106147bc57fe5b60408051608081018252929091015463ffffffff81168352600160201b8104600690810b810b900b60208401526001600160a01b03600160581b8204169183019190915260ff600160f81b9091041615156060820181905290925061487157604080516080810182528a5463ffffffff81168252600160201b8104600690810b810b900b6020830152600160581b81046001600160a01b031692820192909252600160f81b90910460ff161515606082015291505b61488088836000015189614c8f565b6148b7576040805162461bcd60e51b815260206004820152600360248201526213d31160ea1b604482015290519081900360640190fd5b6148c48989898887614d50565b9150915097509795505050505050565b60006148e3600687878761400b565b6001546002546201000b5492935090916001600160801b0316600080600f88900b156149ec576000614913612ab9565b600080546003549293509091829161495d9160079186918591600160a01b810460020b9161ffff600160b81b83048116926001600160801b0390921691600160c81b90041661321a565b915091506149888d8b8d8b8b86888a60008f6004614eee909a9998979695949392919063ffffffff16565b94506149b18c8b8d8b8b86888a60018f6004614eee909a9998979695949392919063ffffffff16565b6201000b54909450600160981b900460020b85156149d5576149d560058f836150a7565b84156149e7576149e760058e836150a7565b505050505b6000806149fe60048d8d8c8b8b61510d565b9092509050614a0f888b84846151b9565b60008a600f0b1215614a3d578315614a2c57614a2c60048d61534e565b8215614a3d57614a3d60048c61534e565b5050505050505095945050505050565b60008082600f0b12614a7357614a6e614a6985858560016144f4565b613122565b6144ec565b614a86614a6985858560000360006144f4565b600003949350505050565b60008082600f0b12614aad57614a6e614a698585856001614479565b614a86614a698585856000036000614479565b808204910615150190565b60008115614b3e5760006001600160a01b03841115614b0157614afc84600160601b876001600160801b031661316a565b614b19565b6001600160801b038516606085901b81614b1757fe5b045b9050614b36614b316001600160a01b03881683613c4a565b61537a565b9150506144ec565b60006001600160a01b03841115614b6c57614b6784600160601b876001600160801b0316613fd1565b614b83565b614b83606085901b6001600160801b038716614ac0565b905080866001600160a01b031611614b9a57600080fd5b6001600160a01b0386160390506144ec565b600082614bba5750836144ec565b600160601b600160e01b03606085901b168215614c48576001600160a01b03861684810290858281614be857fe5b041415614c1957818101828110614c1757614c0d83896001600160a01b031683613fd1565b93505050506144ec565b505b614c3f82614c3a878a6001600160a01b03168681614c3357fe5b0490613c4a565b614ac0565b925050506144ec565b6001600160a01b03861684810290858281614c5f57fe5b04148015614c6c57508082115b614c7557600080fd5b808203614c0d614b31846001600160a01b038b1684613fd1565b60008363ffffffff168363ffffffff1611158015614cb957508363ffffffff168263ffffffff1611155b15614cd5578163ffffffff168363ffffffff1611159050613213565b60008463ffffffff168463ffffffff1611614cfc578363ffffffff16600160201b01614d04565b8363ffffffff165b64ffffffffff16905060008563ffffffff168463ffffffff1611614d34578363ffffffff16600160201b01614d3c565b8363ffffffff165b64ffffffffff169091111595945050505050565b614d586153cc565b614d606153cc565b60008361ffff168560010161ffff1681614d7657fe5b0661ffff169050600060018561ffff16830103905060005b506002818301048961ffff87168281614da357fe5b0661ffff8110614daf57fe5b60408051608081018252929091015463ffffffff81168352600160201b8104600690810b810b900b60208401526001600160a01b03600160581b8204169183019190915260ff600160f81b90910416151560608201819052909550614e1957806001019250614d8e565b898661ffff168260010181614e2a57fe5b0661ffff8110614e3657fe5b60408051608081018252929091015463ffffffff81168352600160201b8104600690810b810b900b60208401526001600160a01b03600160581b8204169183019190915260ff600160f81b90910416151560608201528551909450600090614ea0908b908b614c8f565b9050808015614eb95750614eb98a8a8760000151614c8f565b15614ec45750614ee1565b80614ed457600182039250614edb565b8160010193505b50614d8e565b5050509550959350505050565b60028a810b900b600090815260208c90526040812080546001600160801b031682614f19828d613466565b9050846001600160801b0316816001600160801b03161115614f67576040805162461bcd60e51b81526020600482015260026024820152614c4f60f01b604482015290519081900360640190fd5b6001600160801b03828116159082161581141594501561500c578c60020b8e60020b13614ff457600183018b9055600283018a9055600383018054600160381b600160d81b031916600160381b6001600160a01b038c16021766ffffffffffffff191666ffffffffffffff60068b900b161763ffffffff60d81b1916600160d81b63ffffffff8a16021790555b6003830180546001600160f81b0316600160f81b1790555b82546001600160801b0319166001600160801b038216178355856150555782546150509061504b90600160801b9004600f90810b810b908f900b613154565b613d79565b615076565b82546150769061504b90600160801b9004600f90810b810b908f900b613138565b8354600f9190910b6001600160801b03908116600160801b0291161790925550909c9b505050505050505050505050565b8060020b8260020b816150b657fe5b0760020b156150c457600080fd5b6000806150df8360020b8560020b816150d957fe5b056142de565b600191820b820b60009081526020979097526040909620805460ff9097169190911b90951890945550505050565b600285810b80820b60009081526020899052604080822088850b850b83529082209193849391929184918291908a900b1261515357505060018201546002830154615166565b8360010154880391508360020154870390505b6000808b60020b8b60020b12156151885750506001830154600284015461519b565b84600101548a0391508460020154890390505b92909803979097039b96909503949094039850939650505050505050565b6040805160a08101825285546001600160801b0390811682526001870154602083015260028701549282019290925260038601548083166060830152600160801b900490911660808201526000600f85900b6152585781516001600160801b0316615250576040805162461bcd60e51b815260206004820152600260248201526104e560f41b604482015290519081900360640190fd5b508051615267565b81516152649086613466565b90505b600061528b8360200151860384600001516001600160801b0316600160801b61316a565b905060006152b18460400151860385600001516001600160801b0316600160801b61316a565b905086600f0b6000146152d85787546001600160801b0319166001600160801b0384161788555b60018801869055600288018590556001600160801b03821615158061530657506000816001600160801b0316115b15615344576003880180546001600160801b031981166001600160801b039182168501821617808216600160801b9182900483168501909216021790555b5050505050505050565b600290810b810b6000908152602092909252604082208281556001810183905590810182905560030155565b806001600160a01b0381168114612ab457600080fd5b6040805160e081018252600080825260208201819052918101829052606081018290526080810182905260a0810182905260c081019190915290565b6040805160808101825260008082526020820181905291810182905260608101919091529056fea2646970667358221220a487e228cf0487ec02301cd8cb81a72cdd3e6a3a3bd738ac0ececcf888ee04c264736f6c63430007060033","linkReferences":{}},"methodIdentifiers":{"burn(int24,int24,uint128)":"a34123a7","collect(address,int24,int24,uint128,uint128)":"4f1eb3d8","factory()":"c45a0155","fee()":"ddca3f43","feeGrowthGlobal0X128()":"f3058399","feeGrowthGlobal1X128()":"46141319","flash(address,uint256,uint256,bytes)":"490e6cbc","governance()":"5aa6e675","increaseObservationCardinalityNext(uint16)":"32148f67","initialize(uint160)":"f637731d","initializeImmutables(address,address,address,uint24,int24)":"077bc178","liquidity()":"1a686502","maxLiquidityPerTick()":"70cf754a","mint(address,int24,int24,uint128,bytes)":"3c8a7d8d","observations(uint256)":"252c09d7","observe(uint32[])":"883bdbfd","positionManager()":"791b98bc","positions(bytes32)":"514ea4bf","slot0()":"3850c7bd","snapshotCumulativesInside(int24,int24)":"a38807f2","swap(address,bool,int256,uint160,bytes)":"128acb08","tickBitmap(int16)":"5339c296","tickSpacing()":"d0c93a7c","ticks(int24)":"f30dba93","token0()":"0dfe1681","token1()":"d21220a7"},"id":59}