{"abi":[{"type":"constructor","inputs":[{"name":"_factory","type":"address","internalType":"address"},{"name":"_WETH9","type":"address","internalType":"address"},{"name":"_tokenDescriptor_","type":"address","internalType":"address"}],"stateMutability":"nonpayable"},{"type":"receive","stateMutability":"payable"},{"type":"function","name":"DOMAIN_SEPARATOR","inputs":[],"outputs":[{"name":"","type":"bytes32","internalType":"bytes32"}],"stateMutability":"view"},{"type":"function","name":"PERMIT_TYPEHASH","inputs":[],"outputs":[{"name":"","type":"bytes32","internalType":"bytes32"}],"stateMutability":"view"},{"type":"function","name":"WETH9","inputs":[],"outputs":[{"name":"","type":"address","internalType":"address"}],"stateMutability":"view"},{"type":"function","name":"approve","inputs":[{"name":"to","type":"address","internalType":"address"},{"name":"tokenId","type":"uint256","internalType":"uint256"}],"outputs":[],"stateMutability":"nonpayable"},{"type":"function","name":"balanceOf","inputs":[{"name":"owner","type":"address","internalType":"address"}],"outputs":[{"name":"","type":"uint256","internalType":"uint256"}],"stateMutability":"view"},{"type":"function","name":"baseURI","inputs":[],"outputs":[{"name":"","type":"string","internalType":"string"}],"stateMutability":"pure"},{"type":"function","name":"burn","inputs":[{"name":"tokenId","type":"uint256","internalType":"uint256"}],"outputs":[],"stateMutability":"payable"},{"type":"function","name":"collect","inputs":[{"name":"params","type":"tuple","internalType":"struct INonfungiblePositionManager.CollectParams","components":[{"name":"tokenId","type":"uint256","internalType":"uint256"},{"name":"recipient","type":"address","internalType":"address"},{"name":"amount0Max","type":"uint128","internalType":"uint128"},{"name":"amount1Max","type":"uint128","internalType":"uint128"}]}],"outputs":[{"name":"amount0","type":"uint256","internalType":"uint256"},{"name":"amount1","type":"uint256","internalType":"uint256"}],"stateMutability":"payable"},{"type":"function","name":"collectedFees","inputs":[{"name":"tokenId","type":"uint256","internalType":"uint256"}],"outputs":[{"name":"token0","type":"uint256","internalType":"uint256"},{"name":"token1","type":"uint256","internalType":"uint256"}],"stateMutability":"view"},{"type":"function","name":"createAndInitializePoolIfNecessary","inputs":[{"name":"token0","type":"address","internalType":"address"},{"name":"token1","type":"address","internalType":"address"},{"name":"fee","type":"uint24","internalType":"uint24"},{"name":"sqrtPriceX96","type":"uint160","internalType":"uint160"}],"outputs":[{"name":"pool","type":"address","internalType":"address"}],"stateMutability":"payable"},{"type":"function","name":"decreaseLiquidity","inputs":[{"name":"params","type":"tuple","internalType":"struct INonfungiblePositionManager.DecreaseLiquidityParams","components":[{"name":"tokenId","type":"uint256","internalType":"uint256"},{"name":"liquidity","type":"uint128","internalType":"uint128"},{"name":"amount0Min","type":"uint256","internalType":"uint256"},{"name":"amount1Min","type":"uint256","internalType":"uint256"},{"name":"deadline","type":"uint256","internalType":"uint256"}]}],"outputs":[{"name":"amount0","type":"uint256","internalType":"uint256"},{"name":"amount1","type":"uint256","internalType":"uint256"}],"stateMutability":"payable"},{"type":"function","name":"factory","inputs":[],"outputs":[{"name":"","type":"address","internalType":"address"}],"stateMutability":"view"},{"type":"function","name":"getApproved","inputs":[{"name":"tokenId","type":"uint256","internalType":"uint256"}],"outputs":[{"name":"","type":"address","internalType":"address"}],"stateMutability":"view"},{"type":"function","name":"governance","inputs":[],"outputs":[{"name":"","type":"address","internalType":"address"}],"stateMutability":"view"},{"type":"function","name":"increaseLiquidity","inputs":[{"name":"params","type":"tuple","internalType":"struct INonfungiblePositionManager.IncreaseLiquidityParams","components":[{"name":"tokenId","type":"uint256","internalType":"uint256"},{"name":"amount0Desired","type":"uint256","internalType":"uint256"},{"name":"amount1Desired","type":"uint256","internalType":"uint256"},{"name":"amount0Min","type":"uint256","internalType":"uint256"},{"name":"amount1Min","type":"uint256","internalType":"uint256"},{"name":"deadline","type":"uint256","internalType":"uint256"}]}],"outputs":[{"name":"liquidity","type":"uint128","internalType":"uint128"},{"name":"amount0","type":"uint256","internalType":"uint256"},{"name":"amount1","type":"uint256","internalType":"uint256"}],"stateMutability":"payable"},{"type":"function","name":"initialize","inputs":[],"outputs":[],"stateMutability":"nonpayable"},{"type":"function","name":"isApprovedForAll","inputs":[{"name":"owner","type":"address","internalType":"address"},{"name":"operator","type":"address","internalType":"address"}],"outputs":[{"name":"","type":"bool","internalType":"bool"}],"stateMutability":"view"},{"type":"function","name":"katanaV3MintCallback","inputs":[{"name":"amount0Owed","type":"uint256","internalType":"uint256"},{"name":"amount1Owed","type":"uint256","internalType":"uint256"},{"name":"data","type":"bytes","internalType":"bytes"}],"outputs":[],"stateMutability":"nonpayable"},{"type":"function","name":"mint","inputs":[{"name":"params","type":"tuple","internalType":"struct INonfungiblePositionManager.MintParams","components":[{"name":"token0","type":"address","internalType":"address"},{"name":"token1","type":"address","internalType":"address"},{"name":"fee","type":"uint24","internalType":"uint24"},{"name":"tickLower","type":"int24","internalType":"int24"},{"name":"tickUpper","type":"int24","internalType":"int24"},{"name":"amount0Desired","type":"uint256","internalType":"uint256"},{"name":"amount1Desired","type":"uint256","internalType":"uint256"},{"name":"amount0Min","type":"uint256","internalType":"uint256"},{"name":"amount1Min","type":"uint256","internalType":"uint256"},{"name":"recipient","type":"address","internalType":"address"},{"name":"deadline","type":"uint256","internalType":"uint256"}]}],"outputs":[{"name":"tokenId","type":"uint256","internalType":"uint256"},{"name":"liquidity","type":"uint128","internalType":"uint128"},{"name":"amount0","type":"uint256","internalType":"uint256"},{"name":"amount1","type":"uint256","internalType":"uint256"}],"stateMutability":"payable"},{"type":"function","name":"multicall","inputs":[{"name":"data","type":"bytes[]","internalType":"bytes[]"}],"outputs":[{"name":"results","type":"bytes[]","internalType":"bytes[]"}],"stateMutability":"payable"},{"type":"function","name":"name","inputs":[],"outputs":[{"name":"","type":"string","internalType":"string"}],"stateMutability":"pure"},{"type":"function","name":"ownerOf","inputs":[{"name":"tokenId","type":"uint256","internalType":"uint256"}],"outputs":[{"name":"","type":"address","internalType":"address"}],"stateMutability":"view"},{"type":"function","name":"permit","inputs":[{"name":"spender","type":"address","internalType":"address"},{"name":"tokenId","type":"uint256","internalType":"uint256"},{"name":"deadline","type":"uint256","internalType":"uint256"},{"name":"v","type":"uint8","internalType":"uint8"},{"name":"r","type":"bytes32","internalType":"bytes32"},{"name":"s","type":"bytes32","internalType":"bytes32"}],"outputs":[],"stateMutability":"payable"},{"type":"function","name":"positions","inputs":[{"name":"tokenId","type":"uint256","internalType":"uint256"}],"outputs":[{"name":"nonce","type":"uint96","internalType":"uint96"},{"name":"operator","type":"address","internalType":"address"},{"name":"token0","type":"address","internalType":"address"},{"name":"token1","type":"address","internalType":"address"},{"name":"fee","type":"uint24","internalType":"uint24"},{"name":"tickLower","type":"int24","internalType":"int24"},{"name":"tickUpper","type":"int24","internalType":"int24"},{"name":"liquidity","type":"uint128","internalType":"uint128"},{"name":"feeGrowthInside0LastX128","type":"uint256","internalType":"uint256"},{"name":"feeGrowthInside1LastX128","type":"uint256","internalType":"uint256"},{"name":"tokensOwed0","type":"uint128","internalType":"uint128"},{"name":"tokensOwed1","type":"uint128","internalType":"uint128"}],"stateMutability":"view"},{"type":"function","name":"refundETH","inputs":[],"outputs":[],"stateMutability":"payable"},{"type":"function","name":"safeTransferFrom","inputs":[{"name":"from","type":"address","internalType":"address"},{"name":"to","type":"address","internalType":"address"},{"name":"tokenId","type":"uint256","internalType":"uint256"}],"outputs":[],"stateMutability":"nonpayable"},{"type":"function","name":"safeTransferFrom","inputs":[{"name":"from","type":"address","internalType":"address"},{"name":"to","type":"address","internalType":"address"},{"name":"tokenId","type":"uint256","internalType":"uint256"},{"name":"_data","type":"bytes","internalType":"bytes"}],"outputs":[],"stateMutability":"nonpayable"},{"type":"function","name":"selfPermit","inputs":[{"name":"token","type":"address","internalType":"address"},{"name":"value","type":"uint256","internalType":"uint256"},{"name":"deadline","type":"uint256","internalType":"uint256"},{"name":"v","type":"uint8","internalType":"uint8"},{"name":"r","type":"bytes32","internalType":"bytes32"},{"name":"s","type":"bytes32","internalType":"bytes32"}],"outputs":[],"stateMutability":"payable"},{"type":"function","name":"selfPermitAllowed","inputs":[{"name":"token","type":"address","internalType":"address"},{"name":"nonce","type":"uint256","internalType":"uint256"},{"name":"expiry","type":"uint256","internalType":"uint256"},{"name":"v","type":"uint8","internalType":"uint8"},{"name":"r","type":"bytes32","internalType":"bytes32"},{"name":"s","type":"bytes32","internalType":"bytes32"}],"outputs":[],"stateMutability":"payable"},{"type":"function","name":"selfPermitAllowedIfNecessary","inputs":[{"name":"token","type":"address","internalType":"address"},{"name":"nonce","type":"uint256","internalType":"uint256"},{"name":"expiry","type":"uint256","internalType":"uint256"},{"name":"v","type":"uint8","internalType":"uint8"},{"name":"r","type":"bytes32","internalType":"bytes32"},{"name":"s","type":"bytes32","internalType":"bytes32"}],"outputs":[],"stateMutability":"payable"},{"type":"function","name":"selfPermitIfNecessary","inputs":[{"name":"token","type":"address","internalType":"address"},{"name":"value","type":"uint256","internalType":"uint256"},{"name":"deadline","type":"uint256","internalType":"uint256"},{"name":"v","type":"uint8","internalType":"uint8"},{"name":"r","type":"bytes32","internalType":"bytes32"},{"name":"s","type":"bytes32","internalType":"bytes32"}],"outputs":[],"stateMutability":"payable"},{"type":"function","name":"setApprovalForAll","inputs":[{"name":"operator","type":"address","internalType":"address"},{"name":"approved","type":"bool","internalType":"bool"}],"outputs":[],"stateMutability":"nonpayable"},{"type":"function","name":"supportsInterface","inputs":[{"name":"interfaceId","type":"bytes4","internalType":"bytes4"}],"outputs":[{"name":"","type":"bool","internalType":"bool"}],"stateMutability":"pure"},{"type":"function","name":"sweepToken","inputs":[{"name":"token","type":"address","internalType":"address"},{"name":"amountMinimum","type":"uint256","internalType":"uint256"},{"name":"recipient","type":"address","internalType":"address"}],"outputs":[],"stateMutability":"payable"},{"type":"function","name":"symbol","inputs":[],"outputs":[{"name":"","type":"string","internalType":"string"}],"stateMutability":"pure"},{"type":"function","name":"tokenByIndex","inputs":[{"name":"index","type":"uint256","internalType":"uint256"}],"outputs":[{"name":"","type":"uint256","internalType":"uint256"}],"stateMutability":"view"},{"type":"function","name":"tokenOfOwnerByIndex","inputs":[{"name":"owner","type":"address","internalType":"address"},{"name":"index","type":"uint256","internalType":"uint256"}],"outputs":[{"name":"","type":"uint256","internalType":"uint256"}],"stateMutability":"view"},{"type":"function","name":"tokenURI","inputs":[{"name":"tokenId","type":"uint256","internalType":"uint256"}],"outputs":[{"name":"","type":"string","internalType":"string"}],"stateMutability":"view"},{"type":"function","name":"totalSupply","inputs":[],"outputs":[{"name":"","type":"uint256","internalType":"uint256"}],"stateMutability":"view"},{"type":"function","name":"transferFrom","inputs":[{"name":"from","type":"address","internalType":"address"},{"name":"to","type":"address","internalType":"address"},{"name":"tokenId","type":"uint256","internalType":"uint256"}],"outputs":[],"stateMutability":"nonpayable"},{"type":"function","name":"unwrapWETH9","inputs":[{"name":"amountMinimum","type":"uint256","internalType":"uint256"},{"name":"recipient","type":"address","internalType":"address"}],"outputs":[],"stateMutability":"payable"},{"type":"event","name":"Approval","inputs":[{"name":"owner","type":"address","indexed":true,"internalType":"address"},{"name":"approved","type":"address","indexed":true,"internalType":"address"},{"name":"tokenId","type":"uint256","indexed":true,"internalType":"uint256"}],"anonymous":false},{"type":"event","name":"ApprovalForAll","inputs":[{"name":"owner","type":"address","indexed":true,"internalType":"address"},{"name":"operator","type":"address","indexed":true,"internalType":"address"},{"name":"approved","type":"bool","indexed":false,"internalType":"bool"}],"anonymous":false},{"type":"event","name":"Collect","inputs":[{"name":"tokenId","type":"uint256","indexed":true,"internalType":"uint256"},{"name":"recipient","type":"address","indexed":false,"internalType":"address"},{"name":"amount0","type":"uint256","indexed":false,"internalType":"uint256"},{"name":"amount1","type":"uint256","indexed":false,"internalType":"uint256"}],"anonymous":false},{"type":"event","name":"DecreaseLiquidity","inputs":[{"name":"tokenId","type":"uint256","indexed":true,"internalType":"uint256"},{"name":"liquidity","type":"uint128","indexed":false,"internalType":"uint128"},{"name":"amount0","type":"uint256","indexed":false,"internalType":"uint256"},{"name":"amount1","type":"uint256","indexed":false,"internalType":"uint256"}],"anonymous":false},{"type":"event","name":"IncreaseLiquidity","inputs":[{"name":"tokenId","type":"uint256","indexed":true,"internalType":"uint256"},{"name":"liquidity","type":"uint128","indexed":false,"internalType":"uint128"},{"name":"amount0","type":"uint256","indexed":false,"internalType":"uint256"},{"name":"amount1","type":"uint256","indexed":false,"internalType":"uint256"}],"anonymous":false},{"type":"event","name":"Transfer","inputs":[{"name":"from","type":"address","indexed":true,"internalType":"address"},{"name":"to","type":"address","indexed":true,"internalType":"address"},{"name":"tokenId","type":"uint256","indexed":true,"internalType":"uint256"}],"anonymous":false}],"bytecode":{"object":"0x610140604052600d80546001600160b01b0319166001176001600160b01b0316600160b01b1790553480156200003457600080fd5b50604051620063c7380380620063c783398101604081905262000057916200035e565b82826040518060400160405280601a81526020017f4b6174616e6120563320506f736974696f6e73204e46542d56310000000000008152506040518060400160405280600d81526020016c4b4154414e412d56332d504f5360981b815250604051806040016040528060018152602001603160f81b8152508282620000e96301ffc9a760e01b6200021060201b60201c565b8151620000fe90600690602085019062000295565b5080516200011490600790602084019062000295565b50620001276380ac58cd60e01b62000210565b62000139635b5e139f60e01b62000210565b6200014b63780e9d6360e01b62000210565b5050825160209384012060805280519083012060a052506001600160601b0319606084811b821660c05283901b166101005260408051638da5cb5b60e01b815290516001600160a01b03851692638da5cb5b9260048082019391829003018186803b158015620001ba57600080fd5b505afa158015620001cf573d6000803e3d6000fd5b505050506040513d6020811015620001e657600080fd5b50516001600160601b0319606091821b811660e05293901b9092166101205250620003a792505050565b6001600160e01b0319808216141562000270576040805162461bcd60e51b815260206004820152601c60248201527f4552433136353a20696e76616c696420696e7465726661636520696400000000604482015290519081900360640190fd5b6001600160e01b0319166000908152602081905260409020805460ff19166001179055565b828054600181600116156101000203166002900490600052602060002090601f016020900481019282620002cd576000855562000318565b82601f10620002e857805160ff191683800117855562000318565b8280016001018555821562000318579182015b8281111562000318578251825591602001919060010190620002fb565b50620003269291506200032a565b5090565b5b808211156200032657600081556001016200032b565b80516001600160a01b03811681146200035957600080fd5b919050565b60008060006060848603121562000373578283fd5b6200037e8462000341565b92506200038e6020850162000341565b91506200039e6040850162000341565b90509250925092565b60805160a05160c05160601c60e05160601c6101005160601c6101205160601c615f846200044360003980612a1352508061025a5280611742528061182d52806118b55280613fd6528061401c5280614090525080610de752806118ef5280611e48525080610a5d5280610e2d5280610ef45280612948528061297f5280612d4f52806138be5250806115425250806115215250615f846000f3fe60806040526004361061024a5760003560e01c80635aa6e67511610139578063a4a78f0c116100b6578063c848b07d1161007a578063c848b07d14610699578063c87b56dd146106b9578063df2ab5bb146106d9578063e985e9c5146106ec578063f3995c671461070c578063fc6f78651461071f576102ba565b8063a4a78f0c1461061e578063ac9650d814610631578063b88d4fde14610651578063c2e3140a14610671578063c45a015514610684576102ba565b80638129fc1c116100fd5780638129fc1c14610579578063883164561461058e57806395d89b41146105b157806399fbab88146105c6578063a22cb465146105fe576102ba565b80635aa6e675146104fc5780636352211e146105115780636c0360eb1461053157806370a08231146105465780637ac2ff7b14610566576102ba565b80632f745c59116101c757806342966c681161018b57806342966c681461048e5780634659a494146104a157806349404b7c146104b45780634aa4a4fc146104c75780634f6ccce7146104dc576102ba565b80632f745c5914610404578063309945ba1461042457806330adf81f146104445780633644e5151461045957806342842e0e1461046e576102ba565b806312210e8a1161020e57806312210e8a1461038557806313ead5621461038d57806318160ddd146103a0578063219f5d17146103c257806323b872dd146103e4576102ba565b806301ffc9a7146102bf57806306fdde03146102f5578063081812fc14610317578063095ea7b3146103445780630c49ccbe14610364576102ba565b366102ba57336001600160a01b037f000000000000000000000000000000000000000000000000000000000000000016146102b8576040805162461bcd60e51b81526020600482015260096024820152684e6f7420574554483960b81b604482015290519081900360640190fd5b005b600080fd5b3480156102cb57600080fd5b506102df6102da3660046153ec565b610732565b6040516102ec9190615942565b60405180910390f35b34801561030157600080fd5b5061030a6107a1565b6040516102ec9190615995565b34801561032357600080fd5b506103376103323660046156fa565b6107d8565b6040516102ec9190615824565b34801561035057600080fd5b506102b861035f3660046152b6565b61082b565b6103776103723660046154b1565b610901565b6040516102ec929190615b80565b6102b8610dce565b61033761039b366004615149565b610de0565b3480156103ac57600080fd5b506103b5611101565b6040516102ec919061594d565b6103d56103d03660046154c2565b611112565b6040516102ec93929190615b3b565b3480156103f057600080fd5b506102b86103ff3660046151a2565b611427565b34801561041057600080fd5b506103b561041f3660046152b6565b61147e565b34801561043057600080fd5b5061037761043f3660046156fa565b6114a9565b34801561045057600080fd5b506103b56114d8565b34801561046557600080fd5b506103b56114fc565b34801561047a57600080fd5b506102b86104893660046151a2565b6115ba565b6102b861049c3660046156fa565b6115d5565b6102b86104af366004615322565b6116a4565b6102b86104c2366004615712565b61173e565b3480156104d357600080fd5b506103376118b3565b3480156104e857600080fd5b506103b56104f73660046156fa565b6118d7565b34801561050857600080fd5b506103376118ed565b34801561051d57600080fd5b5061033761052c3660046156fa565b611911565b34801561053d57600080fd5b5061030a611939565b34801561055257600080fd5b506103b56105613660046150f5565b61193e565b6102b8610574366004615322565b6119a6565b34801561058557600080fd5b506102b8611d98565b6105a161059c36600461557e565b611de5565b6040516102ec9493929190615b5c565b3480156105bd57600080fd5b5061030a612343565b3480156105d257600080fd5b506105e66105e13660046156fa565b61236a565b6040516102ec9c9b9a99989796959493929190615b8e565b34801561060a57600080fd5b506102b8610619366004615289565b61257b565b6102b861062c366004615322565b612680565b61064461063f36600461537d565b612719565b6040516102ec91906158e2565b34801561065d57600080fd5b506102b861066c3660046151e2565b612859565b6102b861067f366004615322565b6128b7565b34801561069057600080fd5b50610337612946565b3480156106a557600080fd5b506102b86106b4366004615759565b61296a565b3480156106c557600080fd5b5061030a6106d43660046156fa565b6129e8565b6102b86106e73660046152e1565b612a9e565b3480156106f857600080fd5b506102df610707366004615111565b612b76565b6102b861071a366004615322565b612ba4565b61037761072d36600461549a565b612c16565b60006001600160e01b031982166301ffc9a760e01b148061076357506001600160e01b031982166380ac58cd60e01b145b8061077e57506001600160e01b03198216635b5e139f60e01b145b8061079957506001600160e01b0319821663780e9d6360e01b145b90505b919050565b60408051808201909152601a81527f4b6174616e6120563320506f736974696f6e73204e46542d5631000000000000602082015290565b60006107e3826132f1565b6108085760405162461bcd60e51b81526004016107ff90615a05565b60405180910390fd5b506000908152600c6020526040902054600160601b90046001600160a01b031690565b600061083682611911565b9050806001600160a01b0316836001600160a01b031614156108895760405162461bcd60e51b8152600401808060200182810382526021815260200180615efd6021913960400191505060405180910390fd5b806001600160a01b031661089b6132fe565b6001600160a01b031614806108b757506108b7816107076132fe565b6108f25760405162461bcd60e51b8152600401808060200182810382526038815260200180615e276038913960400191505060405180910390fd5b6108fc8383613302565b505050565b60008082356109103382613378565b61092c5760405162461bcd60e51b81526004016107ff906159a8565b83608001358061093a613414565b1115610983576040805162461bcd60e51b8152602060048201526013602482015272151c985b9cd858dd1a5bdb881d1bdbc81bdb19606a1b604482015290519081900360640190fd5b60006109956040870160208801615590565b6001600160801b0316116109a857600080fd5b84356000908152600c602090815260409182902060018101549092600160801b9091046001600160801b0316916109e3918901908901615590565b6001600160801b0316816001600160801b03161015610a0157600080fd5b6001828101546001600160501b03166000908152600b60209081526040808320815160608101835281546001600160a01b039081168252919095015490811692850192909252600160a01b90910462ffffff1690830152610a827f000000000000000000000000000000000000000000000000000000000000000083613418565b60018501549091506001600160a01b0382169063a34123a790600160501b8104600290810b91600160681b9004900b610ac160408e0160208f01615590565b6040518463ffffffff1660e01b8152600401610adf9392919061596f565b6040805180830381600087803b158015610af857600080fd5b505af1158015610b0c573d6000803e3d6000fd5b505050506040513d601f19601f82011682018060405250810190610b309190615736565b909850965060408901358810801590610b4d575088606001358710155b610b695760405162461bcd60e51b81526004016107ff90615a51565b88356000908152600e6020526040812080546001600160801b031981166001600160801b039182168c01821617808216600160801b9182900483168c01909216021781556001860154909190610bd6903090600160501b8104600290810b91600160681b9004900b6134fc565b9050600080846001600160a01b031663514ea4bf846040518263ffffffff1660e01b8152600401610c07919061594d565b60a06040518083038186803b158015610c1f57600080fd5b505afa158015610c33573d6000803e3d6000fd5b505050506040513d601f19601f82011682018060405250810190610c5791906155da565b50509250925050610c7c88600201548303886001600160801b0316600160801b613556565b8c018860040160008282829054906101000a90046001600160801b03160192506101000a8154816001600160801b0302191690836001600160801b03160217905550610cdc88600301548203886001600160801b0316600160801b613556565b8b018860040160108282829054906101000a90046001600160801b03160192506101000a8154816001600160801b0302191690836001600160801b031602179055508188600201819055508088600301819055508c6020016020810190610d439190615590565b87038860010160106101000a8154816001600160801b0302191690836001600160801b031602179055508c600001357f26f6a048ee9138f2c0ce266f322cb99228e8d619ae2bff30c67f8dcf9d2377b48e6020016020810190610da69190615590565b8e8e604051610db793929190615b3b565b60405180910390a250505050505050505050915091565b4715610dde57610dde3347613605565b565b6000610e0d7f000000000000000000000000000000000000000000000000000000000000000086866136f4565b836001600160a01b0316856001600160a01b031610610e2b57600080fd5b7f00000000000000000000000000000000000000000000000000000000000000006001600160a01b0316631698ee828686866040518463ffffffff1660e01b815260040180846001600160a01b03168152602001836001600160a01b031681526020018262ffffff168152602001935050505060206040518083038186803b158015610eb657600080fd5b505afa158015610eca573d6000803e3d6000fd5b505050506040513d6020811015610ee057600080fd5b505190506001600160a01b038116611016577f00000000000000000000000000000000000000000000000000000000000000006001600160a01b031663a16712958686866040518463ffffffff1660e01b815260040180846001600160a01b03168152602001836001600160a01b031681526020018262ffffff1681526020019350505050602060405180830381600087803b158015610f7f57600080fd5b505af1158015610f93573d6000803e3d6000fd5b505050506040513d6020811015610fa957600080fd5b50516040805163f637731d60e01b81526001600160a01b03858116600483015291519293509083169163f637731d9160248082019260009290919082900301818387803b158015610ff957600080fd5b505af115801561100d573d6000803e3d6000fd5b505050506110f9565b6000816001600160a01b0316633850c7bd6040518163ffffffff1660e01b81526004016101006040518083038186803b15801561105257600080fd5b505afa158015611066573d6000803e3d6000fd5b505050506040513d61010081101561107d57600080fd5b505190506001600160a01b0381166110f757816001600160a01b031663f637731d846040518263ffffffff1660e01b815260040180826001600160a01b03168152602001915050600060405180830381600087803b1580156110de57600080fd5b505af11580156110f2573d6000803e3d6000fd5b505050505b505b949350505050565b600061110d6002613866565b905090565b60008060008360a0013580611125613414565b111561116e576040805162461bcd60e51b8152602060048201526013602482015272151c985b9cd858dd1a5bdb881d1bdbc81bdb19606a1b604482015290519081900360640190fd5b84356000908152600c602090815260408083206001808201546001600160501b0381168652600b855283862084516060808201875282546001600160a01b039081168352929094015480831682890190815262ffffff600160a01b9092048216838901908152885161014081018a528451861681529151909416818a0152925116828701523082850152600160501b8304600290810b810b608080850191909152600160681b909404810b900b60a0830152958c013560c0820152938b013560e0850152908a0135610100840152890135610120830152929061125090613871565b6001870154939a5091985096509150600090611283903090600160501b8104600290810b91600160681b9004900b6134fc565b9050600080836001600160a01b031663514ea4bf846040518263ffffffff1660e01b81526004016112b4919061594d565b60a06040518083038186803b1580156112cc57600080fd5b505afa1580156112e0573d6000803e3d6000fd5b505050506040513d601f19601f8201168201806040525081019061130491906155da565b50509250925050611340866002015483038760010160109054906101000a90046001600160801b03166001600160801b0316600160801b613556565b6004870180546001600160801b0380821690930183166001600160801b0319909116179055600387015460018801546113879291840391600160801b918290041690613556565b6004870180546001600160801b03600160801b80830482169094018116840291811691909117909155600288018490556003880183905560018801805483810483168e018316909302929091169190911790556040518b35907f3067048beee31b25b2f1681f88dac838c8bba36af25bfb2b7cf7473a5847e35f90611411908d908d908d90615b3b565b60405180910390a2505050505050509193909250565b6114386114326132fe565b82613378565b6114735760405162461bcd60e51b8152600401808060200182810382526031815260200180615f1e6031913960400191505060405180910390fd5b6108fc838383613aae565b6001600160a01b03821660009081526001602052604081206114a09083613bfa565b90505b92915050565b6000908152600f6020908152604091829020825180840190935280548084526001909101549290910182905291565b7f49ecf333e5b8c95c40fdafc95c1ad136e8914a8fb55e9dc8bb01eaa83a2df9ad81565b60007f8b73c3c69bb8fe3d512ecc4cf759cc79239f7b179b0ffacaa9a75d522b39400f7f00000000000000000000000000000000000000000000000000000000000000007f0000000000000000000000000000000000000000000000000000000000000000611569613c06565b3060405160200180868152602001858152602001848152602001838152602001826001600160a01b031681526020019550505050505060405160208183030381529060405280519060200120905090565b6108fc83838360405180602001604052806000815250612859565b806115e03382613378565b6115fc5760405162461bcd60e51b81526004016107ff906159a8565b6000828152600c602052604090206001810154600160801b90046001600160801b0316158015611637575060048101546001600160801b0316155b801561165557506004810154600160801b90046001600160801b0316155b6116715760405162461bcd60e51b81526004016107ff90615ad6565b6000838152600c60205260408120818155600181018290556002810182905560038101829055600401556108fc83613c0a565b604080516323f2ebc360e21b815233600482015230602482015260448101879052606481018690526001608482015260ff851660a482015260c4810184905260e4810183905290516001600160a01b03881691638fcbaf0c9161010480830192600092919082900301818387803b15801561171e57600080fd5b505af1158015611732573d6000803e3d6000fd5b50505050505050505050565b60007f00000000000000000000000000000000000000000000000000000000000000006001600160a01b03166370a08231306040518263ffffffff1660e01b815260040180826001600160a01b0316815260200191505060206040518083038186803b1580156117ad57600080fd5b505afa1580156117c1573d6000803e3d6000fd5b505050506040513d60208110156117d757600080fd5b5051905082811015611825576040805162461bcd60e51b8152602060048201526012602482015271496e73756666696369656e7420574554483960701b604482015290519081900360640190fd5b80156108fc577f00000000000000000000000000000000000000000000000000000000000000006001600160a01b0316632e1a7d4d826040518263ffffffff1660e01b815260040180828152602001915050600060405180830381600087803b15801561189157600080fd5b505af11580156118a5573d6000803e3d6000fd5b505050506108fc8282613605565b7f000000000000000000000000000000000000000000000000000000000000000081565b6000806118e5600284613cd7565b509392505050565b7f000000000000000000000000000000000000000000000000000000000000000081565b600061079982604051806060016040528060298152602001615e896029913960029190613cf5565b606090565b60006001600160a01b0382166119855760405162461bcd60e51b815260040180806020018281038252602a815260200180615e5f602a913960400191505060405180910390fd5b6001600160a01b038216600090815260016020526040902061079990613866565b836119af613414565b11156119f3576040805162461bcd60e51b815260206004820152600e60248201526d14195c9b5a5d08195e1c1a5c995960921b604482015290519081900360640190fd5b60006119fd6114fc565b7f49ecf333e5b8c95c40fdafc95c1ad136e8914a8fb55e9dc8bb01eaa83a2df9ad8888611a2981613d02565b604080516020808201969096526001600160a01b03909416848201526060840192909252608083015260a08083018a90528151808403909101815260c08301825280519084012061190160f01b60e084015260e283019490945261010280830194909452805180830390940184526101229091019052815191012090506000611ab187611911565b9050806001600160a01b0316886001600160a01b03161415611b045760405162461bcd60e51b8152600401808060200182810382526027815260200180615d8a6027913960400191505060405180910390fd5b611b0d81613d3c565b15611c75576040805160208082018790528183018690526001600160f81b031960f889901b1660608301528251604181840301815260618301808552630b135d3f60e11b90526065830186815260858401948552815160a585015281516001600160a01b03871695631626ba7e958995919260c59091019185019080838360005b83811015611ba6578181015183820152602001611b8e565b50505050905090810190601f168015611bd35780820380516001836020036101000a031916815260200191505b50935050505060206040518083038186803b158015611bf157600080fd5b505afa158015611c05573d6000803e3d6000fd5b505050506040513d6020811015611c1b57600080fd5b50516001600160e01b031916630b135d3f60e11b14611c70576040805162461bcd60e51b815260206004820152600c60248201526b155b985d5d1a1bdc9a5e995960a21b604482015290519081900360640190fd5b611d84565b600060018387878760405160008152602001604052604051808581526020018460ff1681526020018381526020018281526020019450505050506020604051602081039080840390855afa158015611cd1573d6000803e3d6000fd5b5050604051601f1901519150506001600160a01b038116611d2d576040805162461bcd60e51b8152602060048201526011602482015270496e76616c6964207369676e617475726560781b604482015290519081900360640190fd5b816001600160a01b0316816001600160a01b031614611d82576040805162461bcd60e51b815260206004820152600c60248201526b155b985d5d1a1bdc9a5e995960a21b604482015290519081900360640190fd5b505b611d8e8888613302565b5050505050505050565b600d546001600160b01b031615611dc15760405162461bcd60e51b81526004016107ff90615aa9565b600d80546001600160b01b0319166001176001600160b01b0316600160b01b179055565b60008060008084610140013580611dfa613414565b1115611e43576040805162461bcd60e51b8152602060048201526013602482015272151c985b9cd858dd1a5bdb881d1bdbc81bdb19606a1b604482015290519081900360640190fd5b611e897f0000000000000000000000000000000000000000000000000000000000000000611e7460208901896150f5565b611e8460408a0160208b016150f5565b6136f4565b604080516101408101909152600090611f559080611eaa60208b018b6150f5565b6001600160a01b03168152602001896020016020810190611ecb91906150f5565b6001600160a01b03168152602001611ee960608b0160408c016156e0565b62ffffff168152306020820152604001611f0960808b0160608c01615414565b60020b8152602001611f2160a08b0160808c01615414565b60020b81526020018960a0013581526020018960c0013581526020018960e001358152602001896101000135815250613871565b92975090955093509050611fa2611f7461014089016101208a016150f5565b600d80546001600160b01b0319811660016001600160b01b0392831690810190921617909155975087613d42565b6000611fcd30611fb860808b0160608c01615414565b611fc860a08c0160808d01615414565b6134fc565b9050600080836001600160a01b031663514ea4bf846040518263ffffffff1660e01b8152600401611ffe919061594d565b60a06040518083038186803b15801561201657600080fd5b505afa15801561202a573d6000803e3d6000fd5b505050506040513d601f19601f8201168201806040525081019061204e91906155da565b5050925092505060006120c78560405180606001604052808e600001602081019061207991906150f5565b6001600160a01b031681526020018e602001602081019061209a91906150f5565b6001600160a01b031681526020018e60400160208101906120bb91906156e0565b62ffffff169052613e70565b905060405180610140016040528060006001600160601b0316815260200160006001600160a01b03168152602001826001600160501b031681526020018c60600160208101906121179190615414565b60020b815260200161212f60a08e0160808f01615414565b60020b81526020018a6001600160801b0316815260200184815260200183815260200160006001600160801b0316815260200160006001600160801b0316815250600c60008c815260200190815260200160002060008201518160000160006101000a8154816001600160601b0302191690836001600160601b03160217905550602082015181600001600c6101000a8154816001600160a01b0302191690836001600160a01b0316021790555060408201518160010160006101000a8154816001600160501b0302191690836001600160501b03160217905550606082015181600101600a6101000a81548162ffffff021916908360020b62ffffff160217905550608082015181600101600d6101000a81548162ffffff021916908360020b62ffffff16021790555060a08201518160010160106101000a8154816001600160801b0302191690836001600160801b0316021790555060c0820151816002015560e082015181600301556101008201518160040160006101000a8154816001600160801b0302191690836001600160801b031602179055506101208201518160040160106101000a8154816001600160801b0302191690836001600160801b03160217905550905050897f3067048beee31b25b2f1681f88dac838c8bba36af25bfb2b7cf7473a5847e35f8a8a8a60405161232e93929190615b3b565b60405180910390a25050505050509193509193565b60408051808201909152600d81526c4b4154414e412d56332d504f5360981b602082015290565b6000818152600c6020908152604080832081516101408101835281546001600160601b03811682526001600160a01b03600160601b909104169381019390935260018101546001600160501b038116928401839052600160501b8104600290810b810b810b6060860152600160681b8204810b810b810b60808601526001600160801b03600160801b92839004811660a08701529083015460c0860152600383015460e08601526004909201548083166101008601520416610120830152829182918291829182918291829182918291829182919061245b5760405162461bcd60e51b81526004016107ff90615a7f565b6000600b600083604001516001600160501b03166001600160501b031681526020019081526020016000206040518060600160405290816000820160009054906101000a90046001600160a01b03166001600160a01b03166001600160a01b031681526020016001820160009054906101000a90046001600160a01b03166001600160a01b03166001600160a01b031681526020016001820160149054906101000a900462ffffff1662ffffff1662ffffff1681525050905081600001518260200151826000015183602001518460400151866060015187608001518860a001518960c001518a60e001518b61010001518c61012001519d509d509d509d509d509d509d509d509d509d509d509d50505091939597999b5091939597999b565b6125836132fe565b6001600160a01b0316826001600160a01b031614156125e9576040805162461bcd60e51b815260206004820152601960248201527f4552433732313a20617070726f766520746f2063616c6c657200000000000000604482015290519081900360640190fd5b80600560006125f66132fe565b6001600160a01b03908116825260208083019390935260409182016000908120918716808252919093529120805460ff19169215159290921790915561263a6132fe565b6001600160a01b03167f17307eab39ab6107e8899845ad3d59bd9653f200f220920489ca2b5937696c318360405180821515815260200191505060405180910390a35050565b60408051636eb1769f60e11b81523360048201523060248201529051600019916001600160a01b0389169163dd62ed3e91604480820192602092909190829003018186803b1580156126d157600080fd5b505afa1580156126e5573d6000803e3d6000fd5b505050506040513d60208110156126fb57600080fd5b50511015612711576127118686868686866116a4565b505050505050565b60608167ffffffffffffffff8111801561273257600080fd5b5060405190808252806020026020018201604052801561276657816020015b60608152602001906001900390816127515790505b50905060005b82811015612852576000803086868581811061278457fe5b90506020028101906127969190615c28565b6040516127a4929190615814565b600060405180830381855af49150503d80600081146127df576040519150601f19603f3d011682016040523d82523d6000602084013e6127e4565b606091505b509150915081612830576044815110156127fd57600080fd5b600481019050808060200190518101906128179190615430565b60405162461bcd60e51b81526004016107ff9190615995565b8084848151811061283d57fe5b6020908102919091010152505060010161276c565b5092915050565b61286a6128646132fe565b83613378565b6128a55760405162461bcd60e51b8152600401808060200182810382526031815260200180615f1e6031913960400191505060405180910390fd5b6128b184848484613f5f565b50505050565b60408051636eb1769f60e11b8152336004820152306024820152905186916001600160a01b0389169163dd62ed3e91604480820192602092909190829003018186803b15801561290657600080fd5b505afa15801561291a573d6000803e3d6000fd5b505050506040513d602081101561293057600080fd5b5051101561271157612711868686868686612ba4565b7f000000000000000000000000000000000000000000000000000000000000000081565b6000612978828401846154d3565b90506129a87f00000000000000000000000000000000000000000000000000000000000000008260000151613fb1565b5084156129c35780515160208201516129c391903388613fd4565b83156129e1576129e181600001516020015182602001513387613fd4565b5050505050565b60606129f3826132f1565b6129fc57600080fd5b60405163e9dc637560e01b81526001600160a01b037f0000000000000000000000000000000000000000000000000000000000000000169063e9dc637590612a4a9030908690600401615956565b60006040518083038186803b158015612a6257600080fd5b505afa158015612a76573d6000803e3d6000fd5b505050506040513d6000823e601f3d908101601f191682016040526107999190810190615430565b6000836001600160a01b03166370a08231306040518263ffffffff1660e01b815260040180826001600160a01b0316815260200191505060206040518083038186803b158015612aed57600080fd5b505afa158015612b01573d6000803e3d6000fd5b505050506040513d6020811015612b1757600080fd5b5051905082811015612b65576040805162461bcd60e51b815260206004820152601260248201527124b739bab33334b1b4b2b73a103a37b5b2b760711b604482015290519081900360640190fd5b80156128b1576128b1848383614164565b6001600160a01b03918216600090815260056020908152604080832093909416825291909152205460ff1690565b6040805163d505accf60e01b8152336004820152306024820152604481018790526064810186905260ff8516608482015260a4810184905260c4810183905290516001600160a01b0388169163d505accf9160e480830192600092919082900301818387803b15801561171e57600080fd5b6000808235612c253382613378565b612c415760405162461bcd60e51b81526004016107ff906159a8565b6001600160801b03612c596060860160408701615590565b6001600160801b0316148015612c8d57506001600160801b03612c826080860160608701615590565b6001600160801b0316145b612ca95760405162461bcd60e51b81526004016107ff906159ce565b600080612cbc60408701602088016150f5565b6001600160a01b031614612cdf57612cda60408601602087016150f5565b612ce1565b305b85356000908152600c602090815260408083206001808201546001600160501b03168552600b8452828520835160608101855281546001600160a01b039081168252919092015490811694820194909452600160a01b90930462ffffff169183019190915292935090612d747f000000000000000000000000000000000000000000000000000000000000000083613418565b600484015460018501549192506001600160801b0380821692600160801b9283900482169290041615612f6a57600185015460405163a34123a760e01b81526001600160a01b0385169163a34123a791612deb91600160501b8104600290810b92600160681b909204900b9060009060040161596f565b6040805180830381600087803b158015612e0457600080fd5b505af1158015612e18573d6000803e3d6000fd5b505050506040513d601f19601f82011682018060405250810190612e3c9190615736565b5050600185015460009081906001600160a01b0386169063514ea4bf90612e7a903090600160501b8104600290810b91600160681b9004900b6134fc565b6040518263ffffffff1660e01b8152600401612e96919061594d565b60a06040518083038186803b158015612eae57600080fd5b505afa158015612ec2573d6000803e3d6000fd5b505050506040513d601f19601f82011682018060405250810190612ee691906155da565b50509250925050612f22876002015483038860010160109054906101000a90046001600160801b03166001600160801b0316600160801b613556565b84019350612f5b876003015482038860010160109054906101000a90046001600160801b03166001600160801b0316600160801b613556565b60028801929092556003870155015b6000806001600160801b038416612f8760608e0160408f01615590565b6001600160801b031611612faa57612fa560608d0160408e01615590565b612fac565b835b836001600160801b03168d6060016020810190612fc99190615590565b6001600160801b031611612fec57612fe760808e0160608f01615590565b612fee565b835b60018901546040516309e3d67b60e31b81529294509092506001600160a01b03871691634f1eb3d891613041918c91600160501b8104600290810b92600160681b909204900b908890889060040161587b565b6040805180830381600087803b15801561305a57600080fd5b505af115801561306e573d6000803e3d6000fd5b505050506040513d601f19601f8201168201806040525081019061309291906155ac565b816001600160801b03169150806001600160801b03169050809b50819c5050506000600f60008e60000135815260200190815260200160002090506000600e60008f60000135815260200190815260200160002090508060000160009054906101000a90046001600160801b03166001600160801b03168d0382600001600082825401925050819055508060000160109054906101000a90046001600160801b03166001600160801b03168c0382600101600082825401925050819055506000808260000160008460000160108491906101000a8154816001600160801b0302191690836001600160801b031602179055508391906101000a8154816001600160801b0302191690836001600160801b0316021790555050508386038386038a60040160008c60040160108491906101000a8154816001600160801b0302191690836001600160801b031602179055508391906101000a8154816001600160801b0302191690836001600160801b0316021790555050508860010160109054906101000a90046001600160801b03166001600160801b0316600014801561324a5750836001600160801b0316866001600160801b0316145b80156132675750826001600160801b0316856001600160801b0316145b156132a1578d356000818152600c60205260408120818155600181018290556002810182905560038101829055600401556132a190613c0a565b8d600001357f40d0efd1a53d60ecbf40971b9daf7dc90178c3aadc7aab1765632738fa8b8f018b86866040516132d9939291906158b8565b60405180910390a25050505050505050505050915091565b60006107996002836142ab565b3390565b6000818152600c6020526040902080546001600160601b0316600160601b6001600160a01b03851690810291909117909155819061333f82611911565b6001600160a01b03167f8c5be1e5ebec7d5bd14f71427d1e84f3dd0314c0f7b2291e5b200ac8c7c3b92560405160405180910390a45050565b6000613383826132f1565b6133be5760405162461bcd60e51b815260040180806020018281038252602c815260200180615dfb602c913960400191505060405180910390fd5b60006133c983611911565b9050806001600160a01b0316846001600160a01b031614806134045750836001600160a01b03166133f9846107d8565b6001600160a01b0316145b806110f957506110f98185612b76565b4290565b600081602001516001600160a01b031682600001516001600160a01b03161061344057600080fd5b50805160208083015160409384015184516001600160a01b0394851681850152939091168385015262ffffff166060808401919091528351808403820181526080840185528051908301206001600160f81b031960a085015294901b6bffffffffffffffffffffffff191660a183015260b58201939093527fb381dabeb6037396a764deb39e57a4a3f75b641ce3e9944b1e4b18d036e322e160d5808301919091528251808303909101815260f5909101909152805191012090565b604080516bffffffffffffffffffffffff19606086901b16602080830191909152600285810b60e890811b60348501529085900b901b60378301528251601a818403018152603a90920190925280519101205b9392505050565b600080806000198587098686029250828110908390030390508061358c576000841161358157600080fd5b50829004905061354f565b80841161359857600080fd5b6000848688096000868103871696879004966002600389028118808a02820302808a02820302808a02820302808a02820302808a02820302808a02909103029181900381900460010186841190950394909402919094039290920491909117919091029150509392505050565b604080516000808252602082019092526001600160a01b0384169083906040518082805190602001908083835b602083106136515780518252601f199092019160209182019101613632565b6001836020036101000a03801982511681845116808217855250505050505090500191505060006040518083038185875af1925050503d80600081146136b3576040519150601f19603f3d011682016040523d82523d6000602084013e6136b8565b606091505b50509050806108fc576040805162461bcd60e51b815260206004820152600360248201526253544560e81b604482015290519081900360640190fd5b604080516002808252606082018352600092602083019080368337019050509050828160008151811061372357fe5b60200260200101906001600160a01b031690816001600160a01b031681525050818160018151811061375157fe5b60200260200101906001600160a01b031690816001600160a01b031681525050836001600160a01b0316632f1850d782336040518363ffffffff1660e01b81526004018080602001836001600160a01b03168152602001828103825284818151815260200191508051906020019060200280838360005b838110156137e05781810151838201526020016137c8565b50505050905001935050505060206040518083038186803b15801561380457600080fd5b505afa158015613818573d6000803e3d6000fd5b505050506040513d602081101561382e57600080fd5b50516128b1576040805162461bcd60e51b8152602060048201526002602482015261554160f01b604482015290519081900360640190fd5b6000610799826142b7565b6000806000806000604051806060016040528087600001516001600160a01b0316815260200187602001516001600160a01b03168152602001876040015162ffffff1681525090506138e37f000000000000000000000000000000000000000000000000000000000000000082613418565b91506000826001600160a01b0316633850c7bd6040518163ffffffff1660e01b81526004016101006040518083038186803b15801561392157600080fd5b505afa158015613935573d6000803e3d6000fd5b505050506040513d601f19601f82011682018060405250810190613959919061563b565b505050505050509050600061397188608001516142bb565b905060006139828960a001516142bb565b90506139998383838c60c001518d60e001516145ed565b9750505050816001600160a01b0316633c8a7d8d876060015188608001518960a00151896040518060400160405280888152602001336001600160a01b03168152506040516020016139eb9190615afb565b6040516020818303038152906040526040518663ffffffff1660e01b8152600401613a1a959493929190615838565b6040805180830381600087803b158015613a3357600080fd5b505af1158015613a47573d6000803e3d6000fd5b505050506040513d601f19601f82011682018060405250810190613a6b9190615736565b61010088015191955093508410801590613a8a57508561012001518310155b613aa65760405162461bcd60e51b81526004016107ff90615a51565b509193509193565b826001600160a01b0316613ac182611911565b6001600160a01b031614613b065760405162461bcd60e51b8152600401808060200182810382526029815260200180615ed46029913960400191505060405180910390fd5b6001600160a01b038216613b4b5760405162461bcd60e51b8152600401808060200182810382526024815260200180615db16024913960400191505060405180910390fd5b613b568383836108fc565b613b61600082613302565b6001600160a01b0383166000908152600160205260409020613b8390826146b1565b506001600160a01b0382166000908152600160205260409020613ba690826146bd565b50613bb3600282846146c9565b5080826001600160a01b0316846001600160a01b03167fddf252ad1be2c89b69c2b068fc378daa952ba7f163c4a11628f55a4df523b3ef60405160405180910390a4505050565b60006114a083836146df565b4690565b6000613c1582611911565b9050613c23816000846108fc565b613c2e600083613302565b6000828152600860205260409020546002600019610100600184161502019091160415613c6c576000828152600860205260408120613c6c91615065565b6001600160a01b0381166000908152600160205260409020613c8e90836146b1565b50613c9a600283614743565b5060405182906000906001600160a01b038416907fddf252ad1be2c89b69c2b068fc378daa952ba7f163c4a11628f55a4df523b3ef908390a45050565b6000808080613ce6868661474f565b909450925050505b9250929050565b60006110f98484846147ca565b6000908152600c6020526040902080546bffffffffffffffffffffffff19811660016001600160601b039283169081019092161790915590565b3b151590565b6001600160a01b038216613d9d576040805162461bcd60e51b815260206004820181905260248201527f4552433732313a206d696e7420746f20746865207a65726f2061646472657373604482015290519081900360640190fd5b613da6816132f1565b15613df8576040805162461bcd60e51b815260206004820152601c60248201527f4552433732313a20746f6b656e20616c7265616479206d696e74656400000000604482015290519081900360640190fd5b613e04600083836108fc565b6001600160a01b0382166000908152600160205260409020613e2690826146bd565b50613e33600282846146c9565b5060405181906001600160a01b038416906000907fddf252ad1be2c89b69c2b068fc378daa952ba7f163c4a11628f55a4df523b3ef908290a45050565b6001600160a01b0382166000908152600a60205260409020546001600160501b0316806114a35750600d805460016001600160501b03600160b01b8084048216838101909216026001600160b01b03909316929092179092556001600160a01b038085166000908152600a60209081526040808320805469ffffffffffffffffffff191686179055848352600b8252918290208651815490851673ffffffffffffffffffffffffffffffffffffffff1991821617825591870151950180549287015162ffffff16600160a01b0262ffffff60a01b19969094169290911691909117939093161790915592915050565b613f6a848484613aae565b613f7684848484614894565b6128b15760405162461bcd60e51b8152600401808060200182810382526032815260200180615d586032913960400191505060405180910390fd5b6000613fbd8383613418565b9050336001600160a01b038216146114a357600080fd5b7f00000000000000000000000000000000000000000000000000000000000000006001600160a01b0316846001600160a01b03161480156140155750804710155b15614137577f00000000000000000000000000000000000000000000000000000000000000006001600160a01b031663d0e30db0826040518263ffffffff1660e01b81526004016000604051808303818588803b15801561407557600080fd5b505af1158015614089573d6000803e3d6000fd5b50505050507f00000000000000000000000000000000000000000000000000000000000000006001600160a01b031663a9059cbb83836040518363ffffffff1660e01b815260040180836001600160a01b0316815260200182815260200192505050602060405180830381600087803b15801561410557600080fd5b505af1158015614119573d6000803e3d6000fd5b505050506040513d602081101561412f57600080fd5b506128b19050565b6001600160a01b03831630141561415857614153848383614164565b6128b1565b6128b1848484846149fc565b604080516001600160a01b038481166024830152604480830185905283518084039091018152606490920183526020820180516001600160e01b031663a9059cbb60e01b1781529251825160009485949389169392918291908083835b602083106141e05780518252601f1990920191602091820191016141c1565b6001836020036101000a0380198251168184511680821785525050505050509050019150506000604051808303816000865af19150503d8060008114614242576040519150601f19603f3d011682016040523d82523d6000602084013e614247565b606091505b5091509150818015614275575080511580614275575080806020019051602081101561427257600080fd5b50515b6129e1576040805162461bcd60e51b815260206004820152600260248201526114d560f21b604482015290519081900360640190fd5b60006114a08383614b4c565b5490565b60008060008360020b126142d2578260020b6142da565b8260020b6000035b9050620d89e8811115614318576040805162461bcd60e51b81526020600482015260016024820152601560fa1b604482015290519081900360640190fd5b60006001821661432c57600160801b61433e565b6ffffcb933bd6fad37aa2d162d1a5940015b70ffffffffffffffffffffffffffffffffff1690506002821615614372576ffff97272373d413259a46990580e213a0260801c5b6004821615614391576ffff2e50f5f656932ef12357cf3c7fdcc0260801c5b60088216156143b0576fffe5caca7e10e4e61c3624eaa0941cd00260801c5b60108216156143cf576fffcb9843d60f6159c9db58835c9266440260801c5b60208216156143ee576fff973b41fa98c081472e6896dfb254c00260801c5b604082161561440d576fff2ea16466c96a3843ec78b326b528610260801c5b608082161561442c576ffe5dee046a99a2a811c461f1969c30530260801c5b61010082161561444c576ffcbe86c7900a88aedcffc83b479aa3a40260801c5b61020082161561446c576ff987a7253ac413176f2b074cf7815e540260801c5b61040082161561448c576ff3392b0822b70005940c7a398e4b70f30260801c5b6108008216156144ac576fe7159475a2c29b7443b29c7fa6e889d90260801c5b6110008216156144cc576fd097f3bdfd2022b8845ad8f792aa58250260801c5b6120008216156144ec576fa9f746462d870fdf8a65dc1f90e061e50260801c5b61400082161561450c576f70d869a156d2a1b890bb3df62baf32f70260801c5b61800082161561452c576f31be135f97d08fd981231505542fcfa60260801c5b6201000082161561454d576f09aa508b5b7a84e1c677de54f3e99bc90260801c5b6202000082161561456d576e5d6af8dedb81196699c329225ee6040260801c5b6204000082161561458c576d2216e584f5fa1ea926041bedfe980260801c5b620800008216156145a9576b048a170391f7dc42444e8fa20260801c5b60008460020b13156145c45780600019816145c057fe5b0490505b6401000000008106156145d85760016145db565b60005b60ff16602082901c0192505050919050565b6000836001600160a01b0316856001600160a01b0316111561460d579293925b846001600160a01b0316866001600160a01b03161161463857614631858585614b64565b90506146a8565b836001600160a01b0316866001600160a01b0316101561469a57600061465f878686614b64565b9050600061466e878986614bc7565b9050806001600160801b0316826001600160801b03161061468f5780614691565b815b925050506146a8565b6146a5858584614bc7565b90505b95945050505050565b60006114a08383614c04565b60006114a08383614cca565b60006110f984846001600160a01b038516614d14565b815460009082106147215760405162461bcd60e51b8152600401808060200182810382526022815260200180615d366022913960400191505060405180910390fd5b82600001828154811061473057fe5b9060005260206000200154905092915050565b60006114a08383614dab565b8154600090819083106147935760405162461bcd60e51b8152600401808060200182810382526022815260200180615eb26022913960400191505060405180910390fd5b60008460000184815481106147a457fe5b906000526020600020906002020190508060000154816001015492509250509250929050565b600082815260018401602052604081205482816148655760405162461bcd60e51b81526004018080602001828103825283818151815260200191508051906020019080838360005b8381101561482a578181015183820152602001614812565b50505050905090810190601f1680156148575780820380516001836020036101000a031916815260200191505b509250505060405180910390fd5b5084600001600182038154811061487857fe5b9060005260206000209060020201600101549150509392505050565b60006148a8846001600160a01b0316613d3c565b6148b4575060016110f9565b60006149c2630a85bd0160e11b6148c96132fe565b88878760405160240180856001600160a01b03168152602001846001600160a01b0316815260200183815260200180602001828103825283818151815260200191508051906020019080838360005b83811015614930578181015183820152602001614918565b50505050905090810190601f16801561495d5780820380516001836020036101000a031916815260200191505b5095505050505050604051602081830303815290604052906001600160e01b0319166020820180516001600160e01b038381831617835250505050604051806060016040528060328152602001615d58603291396001600160a01b0388169190614e7f565b905060008180602001905160208110156149db57600080fd5b50516001600160e01b031916630a85bd0160e11b1492505050949350505050565b604080516001600160a01b0385811660248301528481166044830152606480830185905283518084039091018152608490920183526020820180516001600160e01b03166323b872dd60e01b178152925182516000948594938a169392918291908083835b60208310614a805780518252601f199092019160209182019101614a61565b6001836020036101000a0380198251168184511680821785525050505050509050019150506000604051808303816000865af19150503d8060008114614ae2576040519150601f19603f3d011682016040523d82523d6000602084013e614ae7565b606091505b5091509150818015614b15575080511580614b155750808060200190516020811015614b1257600080fd5b50515b612711576040805162461bcd60e51b815260206004820152600360248201526229aa2360e91b604482015290519081900360640190fd5b60009081526001919091016020526040902054151590565b6000826001600160a01b0316846001600160a01b03161115614b84579192915b6000614ba7856001600160a01b0316856001600160a01b0316600160601b613556565b90506146a8614bc284838888036001600160a01b0316613556565b614e8e565b6000826001600160a01b0316846001600160a01b03161115614be7579192915b6110f9614bc283600160601b8787036001600160a01b0316613556565b60008181526001830160205260408120548015614cc05783546000198083019190810190600090879083908110614c3757fe5b9060005260206000200154905080876000018481548110614c5457fe5b600091825260208083209091019290925582815260018981019092526040902090840190558654879080614c8457fe5b600190038181906000526020600020016000905590558660010160008781526020019081526020016000206000905560019450505050506114a3565b60009150506114a3565b6000614cd68383614b4c565b614d0c575081546001818101845560008481526020808220909301849055845484825282860190935260409020919091556114a3565b5060006114a3565b600082815260018401602052604081205480614d7957505060408051808201825283815260208082018481528654600181810189556000898152848120955160029093029095019182559151908201558654868452818801909252929091205561354f565b82856000016001830381548110614d8c57fe5b906000526020600020906002020160010181905550600091505061354f565b60008181526001830160205260408120548015614cc05783546000198083019190810190600090879083908110614dde57fe5b9060005260206000209060020201905080876000018481548110614dfe57fe5b600091825260208083208454600290930201918255600193840154918401919091558354825289830190526040902090840190558654879080614e3d57fe5b60008281526020808220600260001990940193840201828155600190810183905592909355888152898201909252604082209190915594506114a39350505050565b60606110f98484600085614ea4565b806001600160801b038116811461079c57600080fd5b606082471015614ee55760405162461bcd60e51b8152600401808060200182810382526026815260200180615dd56026913960400191505060405180910390fd5b614eee85613d3c565b614f3f576040805162461bcd60e51b815260206004820152601d60248201527f416464726573733a2063616c6c20746f206e6f6e2d636f6e7472616374000000604482015290519081900360640190fd5b600080866001600160a01b031685876040518082805190602001908083835b60208310614f7d5780518252601f199092019160209182019101614f5e565b6001836020036101000a03801982511681845116808217855250505050505090500191505060006040518083038185875af1925050503d8060008114614fdf576040519150601f19603f3d011682016040523d82523d6000602084013e614fe4565b606091505b5091509150614ff4828286614fff565b979650505050505050565b6060831561500e57508161354f565b82511561501e5782518084602001fd5b60405162461bcd60e51b815260206004820181815284516024840152845185939192839260440191908501908083836000831561482a578181015183820152602001614812565b50805460018160011615610100020316600290046000825580601f1061508b57506150a9565b601f0160209004906000526020600020908101906150a991906150ac565b50565b5b808211156150c157600081556001016150ad565b5090565b803561079c81615cdf565b805161ffff8116811461079c57600080fd5b803562ffffff8116811461079c57600080fd5b600060208284031215615106578081fd5b813561354f81615cdf565b60008060408385031215615123578081fd5b823561512e81615cdf565b9150602083013561513e81615cdf565b809150509250929050565b6000806000806080858703121561515e578182fd5b843561516981615cdf565b9350602085013561517981615cdf565b9250615187604086016150e2565b9150606085013561519781615cdf565b939692955090935050565b6000806000606084860312156151b6578081fd5b83356151c181615cdf565b925060208401356151d181615cdf565b929592945050506040919091013590565b600080600080608085870312156151f7578182fd5b843561520281615cdf565b9350602085013561521281615cdf565b925060408501359150606085013567ffffffffffffffff811115615234578182fd5b8501601f81018713615244578182fd5b803561525761525282615c91565b615c6d565b81815288602083850101111561526b578384fd5b81602084016020830137908101602001929092525092959194509250565b6000806040838503121561529b578182fd5b82356152a681615cdf565b9150602083013561513e81615cf4565b600080604083850312156152c8578182fd5b82356152d381615cdf565b946020939093013593505050565b6000806000606084860312156152f5578081fd5b833561530081615cdf565b925060208401359150604084013561531781615cdf565b809150509250925092565b60008060008060008060c0878903121561533a578384fd5b863561534581615cdf565b95506020870135945060408701359350606087013561536381615d26565b9598949750929560808101359460a0909101359350915050565b6000806020838503121561538f578182fd5b823567ffffffffffffffff808211156153a6578384fd5b818501915085601f8301126153b9578384fd5b8135818111156153c7578485fd5b86602080830285010111156153da578485fd5b60209290920196919550909350505050565b6000602082840312156153fd578081fd5b81356001600160e01b03198116811461354f578182fd5b600060208284031215615425578081fd5b813561354f81615d02565b600060208284031215615441578081fd5b815167ffffffffffffffff811115615457578182fd5b8201601f81018413615467578182fd5b805161547561525282615c91565b818152856020838501011115615489578384fd5b6146a8826020830160208601615cb3565b6000608082840312156154ab578081fd5b50919050565b600060a082840312156154ab578081fd5b600060c082840312156154ab578081fd5b600081830360808112156154e5578182fd5b6040516040810167ffffffffffffffff828210818311171561550357fe5b816040526060841215615514578485fd5b60a083019350818410818511171561552857fe5b50826040528435925061553a83615cdf565b91825260208401359161554c83615cdf565b82606083015261555e604086016150e2565b60808301528152615571606085016150c5565b6020820152949350505050565b600061016082840312156154ab578081fd5b6000602082840312156155a1578081fd5b813561354f81615d11565b600080604083850312156155be578182fd5b82516155c981615d11565b602084015190925061513e81615d11565b600080600080600060a086880312156155f1578283fd5b85516155fc81615d11565b809550506020860151935060408601519250606086015161561c81615d11565b608087015190925061562d81615d11565b809150509295509295909350565b600080600080600080600080610100898b031215615657578586fd5b885161566281615cdf565b60208a015190985061567381615d02565b965061568160408a016150d0565b955061568f60608a016150d0565b945061569d60808a016150d0565b935060a08901516156ad81615d26565b60c08a01519093506156be81615d26565b60e08a01519092506156cf81615cf4565b809150509295985092959890939650565b6000602082840312156156f1578081fd5b6114a0826150e2565b60006020828403121561570b578081fd5b5035919050565b60008060408385031215615724578182fd5b82359150602083013561513e81615cdf565b60008060408385031215615748578182fd5b505080516020909101519092909150565b6000806000806060858703121561576e578182fd5b8435935060208501359250604085013567ffffffffffffffff80821115615793578384fd5b818701915087601f8301126157a6578384fd5b8135818111156157b4578485fd5b8860208285010111156157c5578485fd5b95989497505060200194505050565b600081518084526157ec816020860160208601615cb3565b601f01601f19169290920160200192915050565b60020b9052565b6001600160801b03169052565b6000828483379101908152919050565b6001600160a01b0391909116815260200190565b60006001600160a01b03871682528560020b60208301528460020b60408301526001600160801b038416606083015260a06080830152614ff460a08301846157d4565b6001600160a01b03959095168552600293840b60208601529190920b60408401526001600160801b03918216606084015216608082015260a00190565b6001600160a01b039390931683526001600160801b03918216602084015216604082015260600190565b6000602080830181845280855180835260408601915060408482028701019250838701855b8281101561593557603f198886030184526159238583516157d4565b94509285019290850190600101615907565b5092979650505050505050565b901515815260200190565b90815260200190565b6001600160a01b03929092168252602082015260400190565b600293840b81529190920b60208201526001600160801b03909116604082015260600190565b6000602082526114a060208301846157d4565b6020808252600c908201526b139bdd08185c1c1c9bdd995960a21b604082015260600190565b6020808252601c908201527f4d75737420636f6c6c65637420616c6c20746f6b656e73206f77656400000000604082015260600190565b6020808252602c908201527f4552433732313a20617070726f76656420717565727920666f72206e6f6e657860408201526b34b9ba32b73a103a37b5b2b760a11b606082015260800190565b602080825260149082015273507269636520736c69707061676520636865636b60601b604082015260600190565b60208082526010908201526f125b9d985b1a59081d1bdad95b88125160821b604082015260600190565b602080825260139082015272105b1c9958591e481a5b9a5d1a585b1a5e9959606a1b604082015260600190565b6020808252600b908201526a139bdd0818db19585c995960aa1b604082015260600190565b815180516001600160a01b03908116835260208083015182168185015260409283015162ffffff1692840192909252920151909116606082015260800190565b6001600160801b039390931683526020830191909152604082015260600190565b9384526001600160801b039290921660208401526040830152606082015260800190565b918252602082015260400190565b6001600160601b038d1681526001600160a01b038c811660208301528b811660408301528a16606082015262ffffff89166080820152600288900b60a08201526101808101615be060c0830189615800565b615bed60e0830188615807565b8561010083015284610120830152615c09610140830185615807565b615c17610160830184615807565b9d9c50505050505050505050505050565b6000808335601e19843603018112615c3e578283fd5b83018035915067ffffffffffffffff821115615c58578283fd5b602001915036819003821315613cee57600080fd5b60405181810167ffffffffffffffff81118282101715615c8957fe5b604052919050565b600067ffffffffffffffff821115615ca557fe5b50601f01601f191660200190565b60005b83811015615cce578181015183820152602001615cb6565b838111156128b15750506000910152565b6001600160a01b03811681146150a957600080fd5b80151581146150a957600080fd5b8060020b81146150a957600080fd5b6001600160801b03811681146150a957600080fd5b60ff811681146150a957600080fdfe456e756d657261626c655365743a20696e646578206f7574206f6620626f756e64734552433732313a207472616e7366657220746f206e6f6e20455243373231526563656976657220696d706c656d656e7465724552433732315065726d69743a20617070726f76616c20746f2063757272656e74206f776e65724552433732313a207472616e7366657220746f20746865207a65726f2061646472657373416464726573733a20696e73756666696369656e742062616c616e636520666f722063616c6c4552433732313a206f70657261746f7220717565727920666f72206e6f6e6578697374656e7420746f6b656e4552433732313a20617070726f76652063616c6c6572206973206e6f74206f776e6572206e6f7220617070726f76656420666f7220616c6c4552433732313a2062616c616e636520717565727920666f7220746865207a65726f20616464726573734552433732313a206f776e657220717565727920666f72206e6f6e6578697374656e7420746f6b656e456e756d657261626c654d61703a20696e646578206f7574206f6620626f756e64734552433732313a207472616e73666572206f6620746f6b656e2074686174206973206e6f74206f776e4552433732313a20617070726f76616c20746f2063757272656e74206f776e65724552433732313a207472616e736665722063616c6c6572206973206e6f74206f776e6572206e6f7220617070726f766564a264697066735822122000592ff3ac328ea81e0fb912aec0f6f46246473f2de1bb8da7d73dd591f23e9e64736f6c63430007060033","linkReferences":{}},"methodIdentifiers":{"DOMAIN_SEPARATOR()":"3644e515","PERMIT_TYPEHASH()":"30adf81f","WETH9()":"4aa4a4fc","approve(address,uint256)":"095ea7b3","balanceOf(address)":"70a08231","baseURI()":"6c0360eb","burn(uint256)":"42966c68","collect((uint256,address,uint128,uint128))":"fc6f7865","collectedFees(uint256)":"309945ba","createAndInitializePoolIfNecessary(address,address,uint24,uint160)":"13ead562","decreaseLiquidity((uint256,uint128,uint256,uint256,uint256))":"0c49ccbe","factory()":"c45a0155","getApproved(uint256)":"081812fc","governance()":"5aa6e675","increaseLiquidity((uint256,uint256,uint256,uint256,uint256,uint256))":"219f5d17","initialize()":"8129fc1c","isApprovedForAll(address,address)":"e985e9c5","katanaV3MintCallback(uint256,uint256,bytes)":"c848b07d","mint((address,address,uint24,int24,int24,uint256,uint256,uint256,uint256,address,uint256))":"88316456","multicall(bytes[])":"ac9650d8","name()":"06fdde03","ownerOf(uint256)":"6352211e","permit(address,uint256,uint256,uint8,bytes32,bytes32)":"7ac2ff7b","positions(uint256)":"99fbab88","refundETH()":"12210e8a","safeTransferFrom(address,address,uint256)":"42842e0e","safeTransferFrom(address,address,uint256,bytes)":"b88d4fde","selfPermit(address,uint256,uint256,uint8,bytes32,bytes32)":"f3995c67","selfPermitAllowed(address,uint256,uint256,uint8,bytes32,bytes32)":"4659a494","selfPermitAllowedIfNecessary(address,uint256,uint256,uint8,bytes32,bytes32)":"a4a78f0c","selfPermitIfNecessary(address,uint256,uint256,uint8,bytes32,bytes32)":"c2e3140a","setApprovalForAll(address,bool)":"a22cb465","supportsInterface(bytes4)":"01ffc9a7","sweepToken(address,uint256,address)":"df2ab5bb","symbol()":"95d89b41","tokenByIndex(uint256)":"4f6ccce7","tokenOfOwnerByIndex(address,uint256)":"2f745c59","tokenURI(uint256)":"c87b56dd","totalSupply()":"18160ddd","transferFrom(address,address,uint256)":"23b872dd","unwrapWETH9(uint256,address)":"49404b7c"},"id":95}